S0120000636C6F636B5F746573742E73726563E7
S1134000E03F0010214100007541000075410000AF
S1134010754100007541000075410000000000007A
S113402000000000000000000000000075410000D6
S1134030754100000000000075410000754100005A
S11340407541000075410000754100007541000094
S11340507541000075410000754100007541000084
S11340607541000075410000754100007541000074
S11340707541000075410000754100007541000064
S11340807541000075410000754100007541000054
S11340907541000075410000754100007541000044
S11340A07541000075410000754100007541000034
S11340B07541000075410000754100007541000024
S11340C075410000754100007541000038B5054C8C
S11340D0054DAC4204D054F8043B9847AC42FAD1A5
S11340E038BD00BF000000000000000008B500F06B
S11340F083F84FF48073094C0225A36300F0CEF8D3
S11341001023A36300F012F90220A56300F04AF81B
S11341100220E56300F046F8F6E700BF00C009207E
S113412008B50E4B0E4A0F498B420ED300210E4B9D
S11341300E4A93420ED3FFF7C9FF4FF0E0230C4A17
S1134140C3F8082DFFF7D2FFFEE752F8040B43F83B
S1134150040BE9E743F8041BEBE700BF2000001061
S113416088440000200000102000001028000010E7
S113417000400000FEE70000C30803EB900303EBDC
S1134180901303EBD013064A03EB902303EBD023E5
S113419053605368013B5360002BFAD1704700BF52
S11341A020000010014B5843FFF7E6BF40420F00C8
S11341B000230F4A0F49136053609360D360136167
S11341C0D361536293620B600B620B640B66C1F89C
S11341D08030136453649364D3641365D365536666
S11341E04B614B634B654B67C1F89430704700BF1C
S11341F000C0024000C0092008B5FFF7D9FF002223
S11342004CF21271084B1A60196240F2B111196430
S11342104FF040511A66C3F880105A615A635A65C8
S11342205A67C3F8942008BD00C00920094B0A4905
S11342305A6822F470125A600A6822F0C0620A6056
S11342405A6C42F420125A645A6C22F4A0125A6432
S1134250704700BF00C0024000C0092070B5441E72
S1134260034620200C4A0125D0651026084605FA8D
S113427004F413B92023936570BD204214BF9565DF
S1134280D5659665516D013BC1F34001DBB241EA4E
S11342904000D665EDE700BF00C0092008B5FFF770
S11342A0C5FF4FF40073084932208B63FFF764FFA6
S11342B020238B654FF4804318208B630349BDE8AA
S11342C00840FFF7CBBF00BF00C00920FF7F0D00EF
S11342D008B540F0800109041820FFF7BFFF80B241
S11342E008BD08B500210820FFF7B8FFC0B208BD1B
S11342F008B501460820FFF7B1FFC0B208BD08B5F4
S113430000211820FFF7AAFF0020FFF7E1FF002893
S1134310FAD14FF400411820FFF7A0FF0020FFF767
S1134320D7FFB0F5004FF9D108BD000008B544F23D
S11343303A02514B1A600022C3F80C21D3F88020B2
S113434022F00202C3F88020AA22C3F88C2055224E
S1134350C3F88C20D3F888209201FBD4D3F88020B2
S113436022F00102C3F88020AA22C3F88C2055222F
S1134370C3F88C20404AD2F8883013F08073FAD105
S1134380C2F80431FFF7BBFF18203C49FFF766FF72
S11343906020FFF7ADFFFFF7A4FF4006FBD5202206
S11343A0354BC3F8A021D3F8A0215106FBD5282210
S11343B0C3F8A8214FF40052C3F8AC210122AA206B
S11343C05521C3F80C212E4AC3F88420C3F88C006D
S11343D0C3F88C10D3F8802042F00102C3F8802087
S11343E0C3F88C00C3F88C10234BD3F88820D20177
S11343F0FBD50322C3F80421D3F8802042F0020243
S1134400C3F88020AA22C3F88C205522C3F88C203C
S1134410194BD3F888209001FBD52222AA205521DC
S1134420C3F8A420C3F8AC00C3F8AC10D3F8A020A0
S113443042F00102C3F8A020C3F8AC00C3F8AC10EA
S11344400D4BD3F8A820D105FBD5D3F8A8205205ED
S1134450FBD5D3F8A02042F00202C3F8A020AA2280
S1134460C3F8AC205522C3F8AC20034AD2F8A830D4
S11344709B05FBD508BD00BF00C00F4070150800A8
S10B4480180001000000000017
S90341219A
