S00E0000626C696E6B792E737265638D
S1134000E03F00101D4100007141000071410000BB
S11340107141000071410000714100000000000086
S113402000000000000000000000000071410000DA
S11340307141000000000000714100007141000066
S113404071410000714100007141000071410000A4
S11340507141000071410000714100007141000094
S11340607141000071410000714100007141000084
S11340707141000071410000714100007141000074
S11340807141000071410000714100007141000064
S11340907141000071410000714100007141000054
S11340A07141000071410000714100007141000044
S11340B07141000071410000714100007141000034
S11340C071410000714100007141000038B5054C98
S11340D0054DAC4204D054F8043B9847AC42FAD1A5
S11340E038BD00BF000000000000000080B500F0F3
S11340F081F80227084C4FF480761025A76301202D
S1134100A663A56300F04CF8E7630120E663E5636A
S113411000F046F8EFE700BF00C0092008B50E4BD9
S11341200E4A0F498B420ED300210E4B0E4A934286
S11341300ED3FFF7CBFF4FF0E0230C4AC3F8082D52
S1134140FFF7D4FFFEE752F8040B43F8040BE9E74A
S113415043F8041BEBE700BF2000001028420000D6
S11341602000001020000010280000100040000073
S1134170FEE70000C30803EB900303EB901303EB8B
S1134180D013064A03EB902303EBD0235360536808
S1134190013B5360002BFAD1704700BF2000001090
S11341A0014B5843FFF7E6BF40420F0000230F4A7C
S11341B00F49136053609360D3601361D3615362FA
S11341C093620B600B620B640B66C1F8803013645E
S11341D053649364D3641365D36553664B614B6333
S11341E04B654B67C1F89430704700BF00C0024074
S11341F000C0092008B5FFF7D9FF00224CF2127164
S1134200084B1A60196240F2B11119644FF0405121
S11342101A66C3F880105A615A635A655A67C3F81C
S10B4220942008BD00C0092030
S903411D9E
