:10400000E03F001065440000B9440000B9440000DE
:10401000B9440000B9440000B944000000000000A9
:10402000000000000000000000000000B944000093
:10403000B944000000000000B9440000B944000089
:10404000B9440000B9440000B9440000B94400007C
:10405000B9440000B9440000B9440000B94400006C
:10406000B9440000B9440000B9440000B94400005C
:10407000B9440000B9440000B9440000B94400004C
:10408000B9440000B9440000B9440000B94400003C
:10409000B9440000B9440000B9440000B94400002C
:1040A0006D430000B9440000B9440000B944000069
:1040B000B9440000B9440000B9440000B94400000C
:1040C000B9440000B9440000B9440000844641EA04
:1040D000000313F0030349D1403A23D30B68036074
:1040E0004B6843608B688360CB68C3600B69036176
:1040F0004B6943618B698361CB69C3610B6A03625E
:104100004B6A43628B6A8362CB6AC3620B6B036345
:104110004B6B43638B6B8363CB6BC363403040312A
:10412000403ADBD230320BD30B6803604B684360FC
:104130008B688360CB68C36010301031103AF3D2C3
:104140000C3205D351F8043B40F8043B043AF9D251
:10415000043208D0D2071CBF11F8013B00F8013B24
:1041600001D30B8803806046704700BF082A13D331
:104170008B07B1D010F00303AED0C3F10403D21A01
:10418000DB071CBF11F8013B00F8013BA4D331F859
:10419000023B20F8023B9FE7043AD9D3013A11F8D9
:1041A000013B00F8013BF9D20B7803704B78437068
:1041B0008B7883706046704738B5054C054DAC422E
:1041C00004D054F8043B9847AC42FAD138BD00BF44
:1041D000000000000000000038B500F0EFFA0225F2
:1041E00000F0C6F8064C00F0B1F8421CFBD0636B3F
:1041F0009B074CBFE563A56300F09AF8F3E700BFA7
:1042000000C00920C30642BF0022014B1A6070475C
:10421000A001001010B543780C46212B11460CD09C
:10422000222B08D0202B0BD1072209680548FFF765
:104230004DFF07232360012010BD024B1360F8E7F8
:104240000020F9E72000001070B5002406460A4D52
:104250000A48291900F0DFF810B10134402CF7D1D9
:10426000074D22463046291D00F024FC0123402C36
:104270002B6018BF2B6570BDA4010010E401001075
:10428000A001001038B5094C25686DB904F144004F
:1042900000F0D5F840B125602565236D23B9BDE850
:1042A00038408220FFF7D0BF38BD00BFA00100100A
:1042B00070B504460C4800F0CEF83F2809DD2046D2
:1042C00040220A4900F01EFC00250646074CAE427B
:1042D00000DC70BD2178044800F089F80028F8D08F
:1042E00001340135F3E700BFF4010010A401001010
:1042F0000022034B1A601B6D0BB9FFF7A5BF704777
:10430000A001001010B5094C04F1600104F1440053
:1043100000F068F804F1E00104F1540000F062F8E4
:10432000002323600123236510BD00BFA0010010FE
:1043300010B50446C1B2044800F059F8002814BF73
:1043400020464FF0FF3010BDE401001007B50648CD
:104350000DF1070100F05FF818B19DF8070003B0F8
:1043600000BD4FF0FF30FAE7F401001000F008BC88
:1043700008B500F0C3FA144800F0E0FC134A01202D
:10438000134900F0B1FA0021812000F027FB8220C0
:10439000104900F023FB1049052000F01FFB0F48D7
:1043A00000F046FB0E4800F035FBFFF7ABFF4FF087
:1043B000E022D2F80031012043F08073C2F80031CE
:1043C000BDE8084000F047BB2800001000030010C3
:1043D00015420000F1420000B14200008542000099
:1043E0000542000000238160C0E90033704710B52A
:1043F0000468631C5A4202F07F0203F07F0358BF37
:10440000534242689A4217BF8268002011550360E8
:1044100018BF012010BDD0E900239A420DD0826858
:10442000D25C01330A705A4202F07F0203F07F032C
:1044300058BF534243600120704700207047036813
:1044400040688033181A434203F07F0300F07F0076
:1044500058BF5842704708B5FFF7F1FFC0F17F0021
:1044600008BD000008B50E4B0E4A0F498B420ED313
:1044700000210E4B0E4A93420ED3FFF79DFE4FF0E4
:10448000E0230C4AC3F8082DFFF7A6FEFEE752F81A
:10449000040B43F8040BE9E743F8041BEBE700BF08
:1044A00020000010204F00009E010010A00100100D
:1044B000A103001000400000FEE70000C30803EB6A
:1044C000900303EB901303EBD013064A03EB902306
:1044D00003EBD02353605368013B5360002BFAD1A8
:1044E000704700BF0803001000230F4A0F491360F4
:1044F00053609360D3601361D361536293620B6026
:104500000B620B640B66C1F88030136453649364D0
:10451000D3641365D36553664B614B634B654B673F
:10452000C1F89430704700BF00C0024000C00920AD
:1045300008B5FFF7D9FF00224CF21271084B1A6040
:10454000196240F2B11119644FF040511A66C3F874
:1045500080105A615A635A655A67C3F8942008BD9F
:1045600000C00920094B0A495A6822F470125A60A7
:104570000A6822F0C0620A605A6C42F420125A643F
:104580005A6C22F4A0125A64704700BF00C0024067
:1045900000C0092070B5441E034620200C4A0125A6
:1045A000D0651026084605FA04F413B92023936554
:1045B00070BD204214BF9565D5659665516D013B70
:1045C000C1F34001DBB241EA4000D665EDE700BF30
:1045D00000C0092008B5FFF7C5FF4FF40073084974
:1045E00032208B63FFF76AFF20238B654FF48043F3
:1045F00018208B630349BDE80840FFF7CBBF00BF1D
:1046000000C00920FF7F0D0008B540F080010904BB
:104610001820FFF7BFFF80B208BD08B500210820B1
:10462000FFF7B8FFC0B208BD08B501460820FFF784
:10463000B1FFC0B208BD08B500211820FFF7AAFFDE
:104640000020FFF7E1FF0028FAD14FF400411820C5
:10465000FFF7A0FF0020FFF7D7FFB0F5004FF9D11B
:1046600008BD000008B544F23A02514B1A6000221E
:10467000C3F80C21D3F8802022F00202C3F8802076
:10468000AA22C3F88C205522C3F88C20D3F88820A6
:104690009201FBD4D3F8802022F00102C3F88020DD
:1046A000AA22C3F88C205522C3F88C20404AD2F8A5
:1046B000883013F08073FAD1C2F80431FFF7BBFFE2
:1046C00018203C49FFF766FF6020FFF7ADFFFFF7BA
:1046D000A4FF4006FBD52022354BC3F8A021D3F818
:1046E000A0215106FBD52822C3F8A8214FF400527F
:1046F000C3F8AC210122AA205521C3F80C212E4A6F
:10470000C3F88420C3F88C00C3F88C10D3F8802041
:1047100042F00102C3F88020C3F88C00C3F88C106B
:10472000234BD3F88820D201FBD50322C3F8042100
:10473000D3F8802042F00202C3F88020AA22C3F8F6
:104740008C205522C3F88C20194BD3F88820900177
:10475000FBD52222AA205521C3F8A420C3F8AC001F
:10476000C3F8AC10D3F8A02042F00102C3F8A02097
:10477000C3F8AC00C3F8AC100D4BD3F8A820D1059A
:10478000FBD5D3F8A8205205FBD5D3F8A02042F0E2
:104790000202C3F8A020AA22C3F8AC205522C3F815
:1047A000AC20034AD2F8A8309B05FBD508BD00BF5A
:1047B00000C00F40701508001800010008B5FFF791
:1047C000B7FEFFF707FFBDE80840FFF74BBF00004B
:1047D00038B5084C802025686168402DA8BF402569
:1047E0002A4600F067F963682B44636023685B1B0B
:1047F000236038BD1003001037B5114C257AC5F37E
:104800004115022D0DD1002304F11002019301A9DD
:10481000231D04F1080000F063FA10B1019803B001
:1048200030BD04EB850463693BB1064A02F10C011B
:10483000101D03B0BDE8304018471846EFE700BF31
:10484000100300101403001010B5002847D111F018
:104850000401244C23D00822A11800F053F9237A34
:10486000C3F3411204EB8202526A6260E289226061
:1048700022610AB1DB0934D0FFF7BEFF28B9BDE8D9
:1048800010400121802000F009B9E28923699A4291
:10489000D4BF22602360BDE81040FFF799BF2268B3
:1048A000002A17DD616800F02DF90028E7DB636856
:1048B0000344636023681B1A236093B9237AC3F30C
:1048C000411304EB83035B6A6360FFF795FF0028E5
:1048D000E1D1D4E70A46BDE8104000F013B98028C2
:1048E000D9D010BD10030010024B03EB80004161D2
:1048F00042627047100300107047000008B500F0D6
:104900009FF90D4800F086F800200C4900F066F889
:1049100080200A4900F062F84021002000F03EF8B3
:104920004021802000F03AF80020054A0549FFF7B1
:10493000DBFF012008BD00BFF94800004948000026
:1049400044030010A14D0000044BD3F8002230EACC
:104950000202FAD1C3F80802704700BF00C000503D
:104960003022054B000440F4A060C3F80822C3F8CD
:1049700010021020FFF7E8BF00C0005008B5FFF795
:10498000EFFF0904044B41F48071C3F810121020AA
:10499000BDE80840FFF7D8BF00C0005010B50123A4
:1049A0000D4A440004F01E0444EAD014D2F8440234
:1049B000A3400343C2F844324FF48070C2F8484227
:1049C000C2F84C12FFF7C0FF002144F04000BDE8E0
:1049D0001040FFF7D3BF00BF00C000500B4A430098
:1049E00003F01E0342F8131043EAD0100123084AD3
:1049F0008340D2F834120B43C2F83432D2F8043276
:104A000043F00403C2F80432704700BF4C030010A7
:104A100000C00050044B054A1864D2F8043243F039
:104A20000803C2F8043270474C03001000C0005065
:104A3000044B054A5864D2F8043243F00103C2F82B
:104A4000043270474C03001000C0005040F0800159
:104A5000D020FFF793BF011E18BF0121FE20FFF7F2
:104A60008DBF0146F320FFF789BF000010B543005A
:104A700003F01E0343EAD0110846074C090441F431
:104A80000071FFF76DFF2020C4F81012FFF75CFFE4
:104A9000D4F81402C0B210BD00C00050430003F0AF
:104AA0001E0343EAD010003918BF012140F0400036
:104AB000FFF764BF38B503461546400000F01E00FE
:104AC00040EAD3109B000E4C03F03C0343F002037A
:104AD000C4F82832C4F82422D4F8283213F0020390
:104AE00008D1C4F82832FFF73BFFFA20FFF738FF60
:104AF000284638BD51F8043BC4F81C32ECE700BF2F
:104B000000C0005070B58300194D03F03C0343F022
:104B10000103C5F82832D5F820422605FBD56305E8
:104B200022D50025430003F01E0343EAD010C4F34E
:104B300009032C460E4E9C420AD100220C4BC3F8AE
:104B40002822FFF70DFFF220FFF70AFF204670BD75
:104B500014F0030F08BFD6F8185211B1944238BFB1
:104B60000D552D0A0134E6E74FF0FF30EFE700BFA7
:104B700000C00050011E18BF0121D820FFF7FEBE63
:104B8000F8B52B49D1F80042E00712D50123C1F84E
:104B90000832284B5D6C65B1F520FFF7E1FE264B2E
:104BA0002020C1F81032FFF7CFFED1F81402C0B2B6
:104BB000A847220717D508231D49FE20C1F808324F
:104BC000FFF7CEFE1D4B2020C1F81032FFF7BCFED0
:104BD000D1F8140210F01A0F05D0164B1B6C13B14C
:104BE00000F015009847630720D504230024012610
:104BF0000F4D104FC5F80832D5F8302206FA04F3ED
:104C00001A4210D02020C5F83832FFF79DFE601000
:104C100057F82030D5F814122BB140EAC41001F037
:104C20001F01C0B298470134202CE5D1F8BD00BF68
:104C300000C000504C0300100002F5000002FE000E
:104C400008B5244B1A6922F4402242F480221A61EA
:104C5000DA6822F0300242F01002DA60DA6822F0FC
:104C6000405242F00052DA605A6822F0406242F04C
:104C700080625A605A6822F0405242F080525A6074
:104C8000154AD2F8C43043F00043C2F8C430134B85
:104C9000D3F8F42F42F01202C3F8F42FD3F8F82F10
:104CA0009107FBD5D3F8F82FD206FBD500204FF0A3
:104CB000FF32C3F80402C3F80822C3F82C02C3F879
:104CC0003402C3F83822C3F84002FFF7CAFE0120BD
:104CD00008BD00BF00C0024000C00F4000C000502F
:104CE00070B5134C25780024F5B14678AE421DD13D
:104CF0000C608488042C14D0052C10D192240D4D06
:104D0000C68840881D60000AB4EB004F146006DBC3
:104D10001D600123A642D4BF166014600B60012001
:104D200070BD2824044DEBE72846F9E72046F7E755
:104D300094030010FA000010F44E0000014B58607C
:104D4000704700BF94030010F0B540F2EE31884286
:104D5000114C08D11149207892310874196012233E
:104D600001201360F0BD00256168060AC7B20C7807
:104D70000CB92046F6E791F801C0BCEB102F08D122
:104D8000AF4205D11960022E0CBF4B880B78E7E7C4
:104D900001352144EBE700BF94030010FA00001036
:104DA0002DE9F047524F0446BB680D4690464BB97B
:104DB000267806F01F06012E65D0022E77D03EB170
:104DC000002003E098470028F2D00120BDE8F087DA
:104DD0006278D8F80030092AF2D801A151F822F0FF
:104DE000094E0000C14D0000C14D0000C14D000042
:104DF000C14D0000134E00001B4E0000C14D0000CD
:104E00002B4E0000354E000000221A705A7002230B
:104E10000EE0A078FFF71AFED7E743462A46A1889E
:104E20006088BDE8F047FFF78FBF3A7B1A70012317
:104E30002B60CAE7A6782EB93046FFF79BFE638841
:104E40003B73C2E74FF0FF08C1467D682B780BB972
:104E50000120F2E76B78042B08D0052B09D0022B38
:104E600001D195F805902B781D44EFE795F8038064
:104E7000F9E74E45F7D1B8F1000FF4D1A988A87829
:104E8000FFF78CFDEFE76378D8F800200A2B06D0F7
:104E90000B2B08D0002B93D113705370B7E700236E
:104EA00013702E6091E76388002BC1D088E7677884
:104EB000012F0FD0032F15D0002F81D12079D8F8E2
:104EC0000080FFF7D3FDC0F3400088F8000088F8A9
:104ED0000170E6E7618800297FF472AF2079FFF75F
:104EE000DDFD72E76388002B7FF46AAF0121F5E7EF
:104EF00094030010280000000001040001000000DD
:104F000000000000000157494E55534200000000C8
:104F10000000000000000000000000000000000091
:104F200000C201000000080012010101020000405F
:104F3000FFFF050000010102030109024300020115
:104F400000C0320904000001020201000524001023
:104F500001052401010104240202052406000107C1
:104F600005810308000A09040100020A0000000785
:104F70000505024000000705820240000004030905
:104F800004440368007400740070003A002F002F7E
:104F900000750062006500720074006F006F00749D
:104FA0000068002E0073006F0075007200630065DA
:104FB0000066006F007200670065002E006E0065DD
:104FC0000074002F00220355006200650072007417
:104FD000006F006F007400680020007300650072AD
:104FE00000690061006C00120330003000300030B6
:104FF000003000300030003100009200000000015D
:105000000500010088000000070000002A0044009D
:105010006500760069006300650049006E00740059
:10502000650072006600610063006500470055007E
:105030004900440073000000500000007B00300075
:1050400031003200330034003500360037002D00C7
:1050500030003100320033002D00340035003600BE
:1050600037002D0038003900610062002D0030004B
:10507000310032003300340035003600370038008C
:105080003900610062007D000000000012034D0045
:0E509000530046005400310030003000410053
:040000030000446550
:00000001FF
