:10000000E03F0010A5100000F9100000F9100000FA
:10001000F9100000F9100000F910000000000000C5
:10002000000000000000000000000000F9100000C7
:10003000F910000000000000F9100000F9100000A5
:10004000F9100000B1060000F9100000F9100000DE
:10005000F9100000F9100000F9100000F91000007C
:10006000F9100000F9100000F9100000F91000006C
:10007000F9100000F9100000F9100000F91000005C
:10008000F9100000F9100000F9100000F91000004C
:10009000F9100000F9100000F9100000F91000003C
:1000A000A1100000F9100000D5060000F9100000B2
:1000B000F9100000F9100000F9100000F91000001C
:1000C000F9100000F9100000F9100000844641EA20
:1000D000000313F0030349D1403A23D30B680360B4
:1000E0004B6843608B688360CB68C3600B690361B6
:1000F0004B6943618B698361CB69C3610B6A03629E
:100100004B6A43628B6A8362CB6AC3620B6B036385
:100110004B6B43638B6B8363CB6BC363403040316A
:10012000403ADBD230320BD30B6803604B6843603C
:100130008B688360CB68C36010301031103AF3D203
:100140000C3205D351F8043B40F8043B043AF9D291
:10015000043208D0D2071CBF11F8013B00F8013B64
:1001600001D30B8803806046704700BF082A13D371
:100170008B07B1D010F00303AED0C3F10403D21A41
:10018000DB071CBF11F8013B00F8013BA4D331F899
:10019000023B20F8023B9FE7043AD9D3013A11F819
:1001A000013B00F8013BF9D20B7803704B784370A8
:1001B0008B7883706046704738B5054C054DAC426E
:1001C00004D054F8043B9847AC42FAD138BD00BF84
:1001D0000000000000000000274A2848D2F8C43080
:1001E00043F00053C2F8C4300023254AC2F810314E
:1001F000C2F83031C2F85031C2F87031C2F89031D3
:10020000C2F8B031C2F8D031C2F8F031FF239360A8
:1002100013611C4B1946586441F8100B03F154004C
:10022000C3E912034FF0E020596003F144019960E3
:100230001549D9601965D0F8001121F08061C0F826
:10024000001101211163116BC907FCD51968C2F8AF
:1002500000115968C2F804119968C2F80811D968E8
:10026000C2F80C114DF20601C2F810110022C3F8B9
:100270008820C3F88C20704700C00F40080003405E
:1002800000400050D4000010329000884FF08050A1
:100290000E490F4BC1F898005A6A42F001025A62A7
:1002A0005A6842F002025A600A4AD2F8103143F00A
:1002B0000103C2F810314FF0E022D2F8003143F0D0
:1002C0008063C2F80031C1F89C00704700C009206B
:1002D000000003400040005070B58AB043780D46DE
:1002E0001468212B00F25081DFE813F03000220067
:1002F0004E0132003900410046004A004F005400D0
:100300005900FA000201230176006000AE00B3003C
:10031000B900BC00C300EE00F100F5001801200197
:100320004E012601C800CF00DB00D800DE003E01F0
:10033000964B4288D3F890100A44C3F89020D3F823
:1003400090201AB94FF0FF32C3F89020002379E0D3
:100350008F4B5B6BC3F340032370012372E00222D7
:1003600041888B4B01B39A6301200AB070BD884B62
:100370005B6BC3F30013EFE710224188844BF1E776
:10038000834B5B6BC3F30023E6E74FF48072418835
:100390007F4BE7E77E4B5B6BC3F34023DCE74FF417
:1003A000007241887A4BDDE7DA63DDE7362300939C
:1003B000784B68461B6805A99847059B2370069BE8
:1003C0006370069B1B0AA370BDF81A30E3709DF89A
:1003D0001B302371052335E03A2300936D4B6846AB
:1003E0001B6805A99847059B2370069B6370069BB5
:1003F0001B0AA370BDF81A30E3709DF81B302371FF
:10040000079B6371079B1B0AA371BDF81E30E37144
:100410009DF81F302372089B6372089B1B0AA3720E
:10042000BDF82230E3729DF823302373099B637378
:10043000099B1B0AA373BDF82630E3739DF8273090
:10044000237411232B608FE7514B5B6DC3F3C013F3
:1004500082E7802241884E4B49B19A6584E74C4B34
:100460005B6D8FE74FF480724188494BF4E7DA65A2
:100470007AE70322454BC3F8942075E7052000F086
:1004800013FF00F00700207067E7418807297BD839
:10049000052041F0080100F010FF65E705223B4B05
:1004A000E9E70622394BE6E7384B93F898202270AB
:1004B00093F89920627093F89A20A27093F89B2089
:1004C000E27093F89C3084E70022304BD3E72F4B47
:1004D000D3F8A03040E742882C4BC3F8A02043E774
:1004E0002D4B1A8822701B881B0A63700223A9E710
:1004F000294B42881A8040F6DC02198889B2914261
:1005000040F6E92188BF1A881A801A8892B28A4276
:100510008CBF40F6EA221A881A8025E73923009317
:100520001C4B68461B6805A998470FE71B4B1C4AE4
:100530001A6000F0A5FF17E76FF4006442881319F2
:10054000B3F5806F20D26FF4006183885918B1F53C
:10055000806F19D29A4217D80F494A8004228B80A3
:100560000A4BC3F89420F1E600230E482370637011
:1005700001F024FBC6B23246A0700A49E01C0336E3
:10058000FFF7A4FD2E60EFE60020EEE6D400001099
:1005900000C00920181D0000200000101C000010E1
:1005A00021BB0543181C00000022034BC3F8A42004
:1005B000C3F8A820704700BFD400001070B51B4AD4
:1005C000D2F8A440D2F8A81001F07F014B1C634080
:1005D00013F07F0327D0164B92F8AC5003EB811435
:1005E000E5704FF04025AD6865600225114CA563AC
:1005F00003F10D04451E04EB8114313015F8016F31
:10060000854204F8016FF9D192F8AD0003EB811334
:1006100058700023012082F8AD30D2F8A8300133A1
:10062000C2F8A83070BD1846FCE700BFD400001027
:100630009801001000C0092010B50F4CD4F8A43068
:10064000D4F8A82003F07F0302F07F02934204D184
:1006500002220020094BDA6310BD0949402201EB58
:100660008311822001F08AF8D4F8A43001200133EC
:10067000C4F8A430F0E700BFD400001000C0092087
:100680009801001008B500F0ABFF064801F0BAF978
:10069000054A0649022000F099FF012001F03FF8C9
:1006A000002008BD231C000082010010D9020000B8
:1006B0004FF040231A68D20709D5054991F8AC20BC
:1006C000013281F8AC201A6842F001021A607047CA
:1006D000D40000100F4B1A68D00719D55A68D107FB
:1006E00009D59A680C4942F001029A60D1F8882035
:1006F0000132C1F88820DA68D20709D51A6942F0B8
:1007000001021A61044AD2F88C300133C2F88C30ED
:10071000704700BF00400050D400001008B52C4BBB
:10072000D3F8A0209ABB47F6FF710D2000F0C5FD5D
:1007300042F62231122000F0C0FD41F24B3114206C
:1007400000F0BBFD40F20111202000F0B6FD214B6E
:1007500002201988013989B200F0AFFD2921032058
:1007600000F0ABFD00F0BCFD4206FBD5612000F0BF
:10077000BEFD00F0B5FD4307FBD5622000F0B7FDDC
:100780008022154B9A654FF480729A6508BDD3F8A4
:10079000A030012BFAD147F6FF710D2000F08DFD3E
:1007A00042F62231122000F088FD41F24B31142034
:1007B00000F083FD40F20111202000F07EFD054B8A
:1007C00002201988013989B200F077FD4021C6E77F
:1007D000D40000102000001000C0092038B5284CBB
:1007E000D4F8A03083BB47F6FF710D2000F065FD03
:1007F00042F62231122000F060FD43F24B3114200A
:1008000000F05BFD1F4B0220198889B200F055FDF6
:100810002921032000F051FD00F062FD4206FBD5C6
:10082000612000F064FD00F05BFD4307FBD54FF451
:100830008073154D6320AB6300F059FD8023AB65D9
:100840000323C4F8C03038BDD4F8A030012BFAD14E
:1008500047F6FF710D2000F030FD42F622311220E4
:1008600000F02BFD43F24B31142000F026FD054B28
:100870000220198889B200F020FD4021C9E700BF9D
:10088000D40000102000001000C009202DE9F04322
:1008900097B005259B4B6846C3F8C0501523ADF8AB
:1008A00028303A230093984B05A91B6898479DF878
:1008B0001440002C40F02381069BBDF81820190E2F
:1008C0001B0C8DF82B30079B8DF82A10190E1B0C72
:1008D0008DF82F30089B8DF82E10190E1B0C8DF8FB
:1008E0003330099B8DF83210190E1B0C8DF8373000
:1008F0004FF6FF7352BAADF82C20BDF81C200D2026
:1009000052BAADF83020BDF820208DF8361052BA1A
:10091000ADF83420BDF8242047F6FF7152BAADF887
:100920003820ADF83C30DFF8E48100F0C6FC42F638
:100930002231122000F0C1FC41F24B31142000F0B2
:10094000BCFCB8F80010022089B200F0B6FC4FF6EB
:10095000AE112D2000F0B1FC41F284512C2000F0AA
:10096000ACFC0821284600F0A8FC2921032000F057
:10097000A4FC00F0B5FC4606FBD5612000F0B7FCF6
:1009800000F0AEFC4507FBD54FF48072604B9A63D4
:1009900080229A65002544F008010520C9B200F0C4
:1009A0008CFC8DF83A408DF83B500E2000F07CFC1A
:1009B00000F01F000F28F8D10AAEB14600277020C2
:1009C00019F8011B013700F086FC162FF7D16320C0
:1009D000013500F08CFC102DE5D10134082CD9D163
:1009E0000E2000F061FC00F01F000F28F8D14FF43A
:1009F0008072474B6420DA6300F079FC00F070FCF1
:100A00004407FBD4B8F800100220013989B200F085
:100A100054FC00F065FC4006FBD5612000F067FC4B
:100A200000F05EFC4107FBD51023394DAB630E206F
:100A300000F03AFC00F01F000F28F8D1622000F00F
:100A400056FC00F04DFCC206FBD5022310ACA046BC
:100A50000027AB63702000F035FC0137162F08F833
:100A6000010BF7D100F03CFC030702D40223EB6337
:100A7000DDE70E2000F018FC00F01F000F28F8D171
:100A8000642000F034FC00F02BFC10F00400FAD1DC
:100A900080221F4BDA651022DA630122194B8DF890
:100AA000292083F8982002469DF8521083F8991067
:100AB0009DF8531083F89A109DF8541083F89B10FA
:100AC0009DF8551083F89C1014F8015B16F8011B73
:100AD00001328D4218BF40F00100122AF4D110B14A
:100AE000002283F898200221094AD1630022C3F82A
:100AF000C020D3F89410052908BFC3F8942017B07C
:100B0000BDE8F083D4000010181D00002000001084
:100B100000C009202DE9F04387B006220226594B78
:100B2000594CC3F8C02047F6FF710D2000F0C5FBFB
:100B3000564F42F62231122000F0BFFB41F24B31FA
:100B4000142000F0BAFB39880220013989B200F084
:100B5000B4FB4FF6AE112D2000F0AFFB41F28451F3
:100B60002C2000F0AAFB0821052000F0A6FB29217B
:100B7000032000F0A2FB00F0B3FB4106FBD561208F
:100B800000F0B5FB00F0ACFB4207FBD51023A363DC
:100B90004FF48073E3638023E663A3650E2000F0C7
:100BA00083FB00F01F000F28F8D16220E66300F0FD
:100BB0009EFB00F095FBC306FBD5E8460025A66327
:100BC000702000F07FFB0135162D08F8010BF7D1DE
:100BD00000F086FB0507E1D51023E6636420E3639C
:100BE00000F085FB00F07CFB4007FBD400F078FBB5
:100BF0004106FBD53988022089B200F05EFB00F087
:100C00006FFB4206FBD5612000F071FB4FF480734F
:100C1000A36340F215130025ADF80030002745F01E
:100C200008010520C9B200F048FB8DF814508DF87A
:100C300015700E2000F038FB00F01F000F28F8D1CF
:100C4000E9464FF00008702019F8011B08F101086F
:100C500000F041FBB8F1160FF5D16320013700F029
:100C600046FB102FE3D10135082DD7D14FF4807307
:100C70006420E36300F03BFB00F032FB4307FBD44E
:100C800051E700BFD400001000C009202000001070
:100C900070B510222E4B2F4C9A63FFF785FC00F0A5
:100CA00087FAFFF799FAFFF7F1FAFFF737FD2A4DB8
:100CB000D4F890301BB91022254BDA6370BDD4F8FC
:100CC00088301BB9D4F88C30002BF8D0D4F8883099
:100CD000D90744BFD5E90232C5E90223D4F88C30E4
:100CE0002BB194F8AD3043F0020384F8AD30D4F862
:100CF000883093B1D4F88830E868012B82BF94F82B
:100D0000AD3043F0010384F8AD30FFF757FCC0B1BC
:100D1000D4F89030013BC4F89030822000F00AFDF6
:100D20008206064601D4FFF787FC730601D4FFF75D
:100D300083FC00F089FD0023C4F88830C4F88C30AF
:100D4000B6E794F8AD3043F0040384F8AD30E4E73F
:100D500000C00920D4000010200000102DE9F0414F
:100D60008EB010233E490D208B63FFF71DFC8023BE
:100D70008B6547F6FF7100F0A0FA42F6223112208F
:100D800000F09BFA41F24B31142000F096FA40F249
:100D90000111202000F091FA2921032000F08DFAA2
:100DA00000F09EFA4406FBD500F09AFA10F0040415
:100DB000FAD12C4FDFF8B080D7F89430042B08D04C
:100DC00000231022C7F8C030254BDA630EB0BDE80F
:100DD000F081B8F80250B8F80430ADB29BB2AB4223
:100DE000EAD3691E022089B200F067FA612000F0A0
:100DF0007EFA00F075FA4007FBD504EB440662204A
:100E000000F075FA06F138030DEB030606202B0AF5
:100E100006F8343C06F8335C00F046FA0134E4B2DC
:100E2000000A102C06F8320C11D101A8FFF7C6FBFE
:100E3000822000F07FFC8106044601D4FFF7FCFB12
:100E4000620601D4FFF7F8FB00F0FEFC00246420EA
:100E500000F04DFA00F044FA4307FBD40135BAE73D
:100E600000C00920D400001020000010F0B58FB0A1
:100E700006466A466D461C4B03F13807144618684F
:100E80005968083303C4BB422246F7D1304606F105
:100E90002C042B46002210F8011B1E788E4217D11D
:100EA00007785E78B74213D147789E78B7420FD162
:100EB0008778DE78B7420BD1C7781E79B74207D161
:100EC00007795E79B74203D147799E79B74208D056
:100ED0000132082A03F10703DFD1A042D9D1002053
:100EE00000E001200FB0F0BDE01C00002DE9F84F3C
:100EF00000254FF0100A2E464FF002094FF4807B78
:100F0000A84600F055F91F4CFFF766F91E4FFFF792
:100F1000BDF9FFF703FC1D4BD4F888201AB9D4F8AB
:100F20008C20002AF8D0D4F88820D20744BFD7E913
:100F30000212C7E90221D4F88C200AB1C3F83CA000
:100F4000D4F8882072B1D4F88820F868012A88BFC4
:100F5000C3F83CB0FFF78AFF0C4B58B16426C3F8C6
:100F600038900135142DC4F88880C4F88C80D3D112
:100F7000BDE8F88F1EB93546C3F83C90F2E7013E54
:100F8000F0E700BFD40000102000001000C00920CE
:100F9000F8B500F0F3F802234FF4807510211A46DB
:100FA0003C4C012BA563A163A263E563E163E263AB
:100FB0000ED100F05FF9A563E56300F09FF9A5632A
:100FC0000420E56300F070F9B0F5774F02D0FEE73A
:100FD0000123E6E7A56300F0A7F9042610242D4DB0
:100FE0000220AC6300F0A0F80220EC6300F09CF853
:100FF000013EF5D14FF0402302270422AC63264C7A
:101000005F6084F8AC60DA60244A4FF0E0219A61B6
:1010100003225A61D1F800213A43C1F8002101228C
:101020005A60FFF763FFAF63FFF72CFB00F00CFC87
:10103000D4F8903013B1FFF72BFEF7E7D4F89430D3
:10104000032B06D1D4F8C030032B02D0FFF7C6FB28
:10105000ECE7D4F89430052B06D1D4F8C030052B3A
:1010600002D0FFF713FCE1E7D4F89430062B05D14A
:10107000D4F8C030062B01D0FFF74CFDD4F89430E3
:10108000042BD3D1D4F8C030042BCFD0FFF766FEA9
:10109000CCE700BF00C00920D4000010FFFF4FC301
:1010A00000F0D2BB08B50E4B0E4A0F498B420ED34F
:1010B00000210E4B0E4A93420ED3FFF77DF84FF0FE
:1010C000E0230C4AC3F8082DFFF762FFFEE752F851
:1010D000040B43F8040BE9E743F8041BEBE700BFFC
:1010E00020000010481D0000D4000010D4000010A3
:1010F0003122001000000000FEE70000C30803EBEF
:10110000900303EB901303EBD013064A03EB9023F9
:1011100003EBD02353605368013B5360002BFAD19B
:10112000704700BF98210010014B5843FFF7E6BFFE
:1011300040420F0000230F4A0F4913605360936031
:10114000D3601361D361536293620B600B620B64D3
:101150000B66C1F88030136453649364D3641365E1
:10116000D36553664B614B634B654B67C1F8943055
:10117000704700BF00C0024000C0092008B5FFF75B
:10118000D9FF00224CF21271084B1A60196240F22A
:10119000B11119644FF040511A66C3F880105A61BA
:1011A0005A635A655A67C3F8942008BD00C00920E5
:1011B000114B1A6822F4404242F400421A601A6845
:1011C00022F4405242F400521A601A6822F440326B
:1011D00042F400321A601A6822F4402242F40022DB
:1011E0001A604FF08052054BC3F89820C722044B79
:1011F0001A600C225A60704700C0024000C00920EB
:1012000000000340094B0A495A6822F470125A60E0
:101210000A6822F0C0620A605A6C42F420125A64D2
:101220005A6C22F4A0125A64704700BF00C00240FA
:1012300000C0092070B5441E034620200C4A012539
:10124000D0651026084605FA04F413B920239365E7
:1012500070BD204214BF9565D5659665516D013B03
:10126000C1F34001DBB241EA4000D665EDE700BFC3
:1012700000C0092008B5FFF7C5FF4FF40073084907
:1012800032208B63FFF73AFF20238B654FF48043B6
:1012900018208B630349BDE80840FFF7CBBF00BFB0
:1012A00000C00920FF7F0D0008B540F0800109044F
:1012B0001820FFF7BFFF80B208BD41EA00411820A7
:1012C000FFF7B8BF08B5010241F400411020FFF755
:1012D000B1FFC0B208BD41EA00211020FFF7AABF4C
:1012E00008B500210820FFF7A5FFC0B208BD08B56A
:1012F00001460820FFF79EFFC0B208BD08B50021D7
:101300001820FFF797FF0020FFF7CEFF0028FAD143
:101310004FF400411820FFF78DFF0020FFF7C4FFB6
:10132000B0F5004FF9D108BD08B544F23A02514B6F
:101330001A600022C3F80C21D3F8802022F00202A8
:10134000C3F88020AA22C3F88C205522C3F88C2031
:10135000D3F888209201FBD4D3F8802022F0010238
:10136000C3F88020AA22C3F88C205522C3F88C2011
:10137000404AD2F8883013F08073FAD1C2F80431B1
:10138000FFF7BCFF18203C49FFF754FF6020FFF730
:10139000AEFFFFF7A5FF4006FBD52022354BC3F873
:1013A000A021D3F8A0215106FBD52822C3F8A821FB
:1013B0004FF40052C3F8AC210122AA205521C3F8F2
:1013C0000C212E4AC3F88420C3F88C00C3F88C107B
:1013D000D3F8802042F00102C3F88020C3F88C00CB
:1013E000C3F88C10234BD3F88820D201FBD50322FD
:1013F000C3F80421D3F8802042F00202C3F8802011
:10140000AA22C3F88C205522C3F88C20194BD3F89C
:1014100088209001FBD52222AA205521C3F8A420C0
:10142000C3F8AC00C3F8AC10D3F8A02042F001021E
:10143000C3F8A020C3F8AC00C3F8AC100D4BD3F830
:10144000A820D105FBD5D3F8A8205205FBD5D3F8A9
:10145000A02042F00202C3F8A020AA22C3F8AC20C8
:101460005522C3F8AC20034AD2F8A8309B05FBD51F
:1014700008BD00BF00C00F40701508001800010033
:1014800008B5FFF757FE0222084B0948DA634FF010
:1014900080431A6842F003021A60AA229A60552219
:1014A0009A60BDE80840FFF729BE00BF00C00920D0
:1014B00040420F0038B5084C802025686168402DF7
:1014C000A8BF40252A4600F059F963682B446360A1
:1014D00023685B1B236038BDA021001037B5114C79
:1014E000257AC5F34115022D0DD1002304F1100218
:1014F000019301A9231D04F1080000F055FA10B171
:10150000019803B030BD04EB850463693BB1064A22
:1015100002F10C01101D03B0BDE830401847184619
:10152000EFE700BFA0210010A421001010B5002893
:1015300047D111F00401244C23D00822A11800F057
:1015400045F9237AC3F3411204EB8202526A6260C6
:10155000E289226022610AB1DB0934D0FFF7BEFFC5
:1015600028B9BDE810400121802000F0FBB8E289D5
:1015700023699A42D4BF22602360BDE81040FFF780
:1015800099BF2268002A17DD616800F01FF9002862
:10159000E7DB63680344636023681B1A236093B925
:1015A000237AC3F3411304EB83035B6A6360FFF7A1
:1015B00095FF0028E1D1D4E70A46BDE8104000F0CD
:1015C00005B98028D9D010BDA0210010024B03EB33
:1015D0008000416142627047A02100107047000006
:1015E00008B500F091F90D4800F086F800200C498C
:1015F00000F066F880200A4900F062F840210020DF
:1016000000F03EF84021802000F03AF80020054A22
:101610000549FFF7DBFF012008BD00BFDD15000015
:101620002D150000D4210010691A0000044BD3F8D6
:10163000002230EA0202FAD1C3F80802704700BF64
:1016400000C000503022054B000440F4A060C3F8F5
:101650000822C3F810021020FFF7E8BF00C00050B6
:1016600008B5FFF7EFFF0904044B41F48071C3F89C
:1016700010121020BDE80840FFF7D8BF00C000508E
:1016800010B501230D4A440004F01E0444EAD014AE
:10169000D2F84402A3400343C2F844324FF48070AE
:1016A000C2F84842C2F84C12FFF7C0FF002144F0D4
:1016B0004000BDE81040FFF7D3BF00BF00C000509E
:1016C0000B4A430003F01E0342F8131043EAD01004
:1016D0000123084A8340D2F834120B43C2F8343253
:1016E000D2F8043243F00403C2F80432704700BF5A
:1016F000DC21001000C00050044B054A1864D2F8E9
:10170000043243F00803C2F804327047DC210010B1
:1017100000C0005040F08001D020FFF7A1BF011EA3
:1017200018BF0121FE20FFF79BBF0146F320FFF702
:1017300097BF000010B5430003F01E0343EAD01129
:101740000846074C090441F40071FFF77BFF202095
:10175000C4F81012FFF76AFFD4F81402C0B210BD2B
:1017600000C00050430003F01E0343EAD0100039CC
:1017700018BF012140F04000FFF772BF38B50346A3
:101780001546400000F01E0040EAD3109B000E4CAE
:1017900003F03C0343F00203C4F82832C4F82422C7
:1017A000D4F8283213F0020308D1C4F82832FFF726
:1017B00049FFFA20FFF746FF284638BD51F8043BA1
:1017C000C4F81C32ECE700BF00C0005070B58300C5
:1017D000194D03F03C0343F00103C5F82832D5F856
:1017E00020422605FBD5630522D50025430003F0E2
:1017F0001E0343EAD010C4F309032C460E4E9C424C
:101800000AD100220C4BC3F82822FFF71BFFF2205D
:10181000FFF718FF204670BD14F0030F08BFD6F87D
:10182000185211B1944238BF0D552D0A0134E6E724
:101830004FF0FF30EFE700BF00C00050011E18BF9F
:101840000121D820FFF70CBFF8B52B49D1F8004291
:10185000E00712D50123C1F80832284B5D6C65B151
:10186000F520FFF7EFFE264B2020C1F81032FFF7DE
:10187000DDFED1F81402C0B2A847220717D508230D
:101880001D49FE20C1F80832FFF7DCFE1D4B202069
:10189000C1F81032FFF7CAFED1F8140210F01A0F87
:1018A00005D0164B1B6C13B100F015009847630769
:1018B00020D50423002401260F4D104FC5F808320F
:1018C000D5F8302206FA04F31A4210D02020C5F8C9
:1018D0003832FFF7ABFE601057F82030D5F81412FD
:1018E0002BB140EAC41001F01F01C0B29847013487
:1018F000202CE5D1F8BD00BF00C00050DC21001055
:101900000002F5000002FE0008B5244B1A6922F41B
:10191000402242F480221A61DA6822F0300242F05A
:101920001002DA60DA6822F0405242F00052DA60C7
:101930005A6822F0406242F080625A605A6822F08F
:10194000405242F080525A60154AD2F8C43043F0F7
:101950000043C2F8C430134BD3F8F42F42F0120204
:10196000C3F8F42FD3F8F82F9107FBD5D3F8F82F4D
:10197000D206FBD500204FF0FF32C3F80402C3F8B3
:101980000822C3F82C02C3F83402C3F83822C3F883
:101990004002FFF7CAFE012008BD00BF00C00240A0
:1019A00000C00F4000C0005070B5134C25780024D3
:1019B000F5B14678AE421DD10C608488042C14D059
:1019C000052C10D192240D4DC68840881D60000A58
:1019D000B4EB004F146006DB1D600123A642D4BFA8
:1019E000166014600B60012070BD2824044DEBE7E5
:1019F0002846F9E72046F7E72422001030000010BF
:101A00001C1D0000014B5860704700BF24220010CD
:101A1000F0B540F2EE318842114C08D111492078DE
:101A2000923108741960122301201360F0BD002563
:101A30006168060AC7B20C780CB92046F6E791F83F
:101A400001C0BCEB102F08D1AF4205D11960022EA6
:101A50000CBF4B880B78E7E701352144EBE700BF6B
:101A600024220010300000102DE9F047524F0446A8
:101A7000BB680D4690464BB9267806F01F06012E2E
:101A800065D0022E77D03EB1002003E098470028B1
:101A9000F2D00120BDE8F0876278D8F80030092A3A
:101AA000F2D801A151F822F0D11A0000891A0000E1
:101AB000891A0000891A0000891A0000DB1A000048
:101AC000E31A0000891A0000F31A0000FD1A000052
:101AD00000221A705A7002230EE0A078FFF71AFE57
:101AE000D7E743462A46A1886088BDE8F047FFF75C
:101AF0008FBF3A7B1A7001232B60CAE7A6782EB9F4
:101B00003046FFF79BFE63883B73C2E74FF0FF0848
:101B1000C1467D682B780BB90120F2E76B78042B66
:101B200008D0052B09D0022B01D195F805902B7810
:101B30001D44EFE795F80380F9E74E45F7D1B8F17A
:101B4000000FF4D1A988A878FFF79AFDEFE7637832
:101B5000D8F800200A2B06D00B2B08D0002B93D1ED
:101B600013705370B7E7002313702E6091E76388FA
:101B7000002BC1D088E76778012F0FD0032F15D035
:101B8000002F81D12079D8F80080FFF7D3FDC0F372
:101B9000400088F8000088F80170E6E761880029B5
:101BA0007FF472AF2079FFF7DDFD72E76388002BC9
:101BB0007FF46AAF0121F5E72422001020F0030131
:101BC00010F00300C0F1000051F8043B00F1040CD8
:101BD0004FEACC0C6FF000021CBF22FA0CF2134348
:101BE0004FF0010C4CEA0C2C4CEA0C4CA3EB0C0211
:101BF00022EA030212EACC1204BF51F8043B04307B
:101C0000F4D0C2F1000102EA0102B2FA82F2C2F19A
:101C10001F0200EBD2007047323032302D31322DAE
:101C200052310012010002FF000040FFFF040000DB
:101C300001010203010902200001010080320904B0
:101C4000000002FF000000070582024000000705B7
:101C50000502400000040309044403680074007492
:101C60000070003A002F002F0075006200650072BE
:101C70000074006F006F00740068002E0073006F26
:101C800000750072006300650066006F00720067F7
:101C90000065002E006E00650074002F0030037593
:101CA0000062006500720074006F006F00740068CD
:101CB00000200061007300730065006D0062006C1D
:101CC0000079005F00740065007300740012033037
:101CD00000300030003000300030003000310000B3
:101CE000475C58CC73345E8EB8B198E668BC11D7A7
:101CF00016331CCD1723AE2C66399A2F75C58CC7A9
:101D00003345E7EB8B198E668BCE1D716331CCD1D9
:101D1000793AE2C66399A2F3F11FFF1F2800000081
:101D2000000104000100000000000000000157490C
:101D30004E5553420000000000000000000000006B
:081D400000000000000000009B
:101D480089096009B3090000E400001028010010A7
:101D58009200000000010500010088000000070053
:101D680000002A00440065007600690063006500F1
:101D780049006E007400650072006600610063002F
:101D880065004700550049004400730000005000FA
:101D980000007B0030003100320033003400350091
:101DA800360037002D0030003100320033002D009E
:101DB80034003500360037002D0038003900610046
:101DC80062002D003000310032003300340035004D
:101DD8003600370038003900610062007D000000DD
:101DE800000012034D00530046005400310030003B
:041DF8003000410076
:04000003000010A544
:00000001FF
