S0160000626C7565746F6F74685F727874782E7372656303
S1134000E03F00100D90000061900000558D00000D
S11340108D8D0000E18D0000398E0000000000004D
S1134020000000000000000000000000619000009B
S113403061900000000000006190000061900000A9
S113404061900000B94E00001D7800004D8F000003
S11340506190000061900000619000006190000098
S11340606190000061900000619000006190000088
S11340706190000061900000619000006190000078
S11340806190000061900000619000006190000068
S113409061900000E94F0000619000006190000011
S11340A00990000061900000E95000006190000058
S11340B06190000061900000619000006190000038
S11340C0619000006190000061900000844641EA24
S11340D0000313F0030349D1403A23D30B68036070
S11340E04B6843608B688360CB68C3600B69036172
S11340F04B6943618B698361CB69C3610B6A03625A
S11341004B6A43628B6A8362CB6AC3620B6B036341
S11341104B6B43638B6B8363CB6BC3634030403126
S1134120403ADBD230320BD30B6803604B684360F8
S11341308B688360CB68C36010301031103AF3D2BF
S11341400C3205D351F8043B40F8043B043AF9D24D
S1134150043208D0D2071CBF11F8013B00F8013B20
S113416001D30B8803806046704700BF082A13D32D
S11341708B07B1D010F00303AED0C3F10403D21AFD
S1134180DB071CBF11F8013B00F8013BA4D331F855
S1134190023B20F8023B9FE7043AD9D3013A11F8D5
S11341A0013B00F8013BF9D20B7803704B78437064
S11341B08B7883706046704770B503460446800769
S11341C08E4607D0002A3ED003F801EB990702F18E
S11341D0FF32F7D1032A2BD95FFA8EFC0CEB0C2C9F
S11341E00F2A0CEB0C4134D99C46002015090130F0
S11341F0A842CCE90011CCE902110CF1100CF6D361
S1134200681E103312F00C0F03EB001302F00F00C2
S11342101BD0021F032A196005D9A0F10802032A42
S1134220596088BF996000F0030220F00300034442
S11342304AB1013A83F800E005D0012A83F801E08D
S113424018BF83F802E0204670BD0246002AF0D170
S1134250F9E71046DDE700BF38B5054C054DAC4223
S113426004D054F8043B9847AC42FAD138BD00BF9F
S1134270000000000000000010B5002304461846AA
S113428044FA03F2C3F1070102F001028A40013348
S11342900243082BD0B2F3D110BD000010B5044C7A
S11342A0206004F0EBFEE080000CA08010BD00BF95
S11342B02000001038B5264B264D1A7812B11A7812
S11342C0012A26D11A78002A3FD01C78611E4C425C
S11342D04C41A40147F6FF710D2004F0B2FF42F6F1
S11342E02231122004F0ADFF41F24B31142004F0CE
S11342F0A8FF40F20111202004F0A3FFB5F84C10F0
S11343000220013989B204F09CFF2146032004F005
S113431098FFB5F84C0080B202F088FE02F0FCFE73
S113432005F01AF84206FBD5612005F01CF805F0EB
S113433013F84307FBD5622005F015F88022064BDD
S11343409A654FF480729A6538BD2924C2E700BF8C
S1134350FC0600102000001000C0092070B5294B95
S113436004461A78002A48D01B78012B44D14025F2
S113437040F2615647F6FF710D2004F062FF42F6E9
S11343802231122004F05DFF41F24B21142004F08D
S113439058FF3146202004F054FFA1B22C2004F031
S11343A050FF210C184C2D2004F04BFFB4F84C1096
S11343B00220013989B204F044FF2946032004F0A5
S11343C040FFB4F84C0080B202F030FE02F0A4FECC
S11343D004F0C2FF4206FBD5612004F0C4FF04F0E0
S11343E0BBFF4307FBD5622004F0BDFF8022074BCF
S11343F09A654FF480729A6570BD292540F2614632
S1134400B8E700BFFC0600102000001000C009201F
S113441010B5642004F0A7FF04F09EFF10F004041C
S1134420FAD180221F4B1021DA654FF48072DA65CD
S1134430D963DA630222DA6302F05CFE02F052FF0F
S113444002F04CFE02F084FD40F68911164B174A27
S11344505C709C70A2F84C109E219C80A2F84E10B7
S113446040F66211DC80A2F850101C72DC601C82E1
S11344709C74DC741C755C759C75DC751C704FF445
S11344801663A2F8523040F6B313A2F85430E22374
S11344900020002182F85630054BC3E90001C3E92E
S11344A0020110BD00C00920FC060010200000100D
S11344B0980B001038B54C4C0546227D022A10D1C9
S11344C003232375494B1B68A361E38B013BA3833F
S11344D000232384A362464B9A7D0AB128229A6161
S11344E038BD032A03792FD1A26A03F003039AB1DA
S11344F0228CA18D92B291420ED13C4A1268A261E3
S1134500E28DE283013AA28394F8302084F82220D9
S1134510628EA2840022A262032BE1D1AB79002B2C
S1134520DED1EB79228C84F830302B8992B2638609
S11345306B89E3852B8AA3859B1A47F6FE72934207
S1134540CEDC0123A362CBE7012AC9D103F00F0318
S1134550052BC5D14379222BC2D140F67A42838BF5
S1134560063B9BB29342BBD8636C5BBB02232375AF
S1134570002323612A7DAB7C687D43EA0243EA7C05
S113458043EA022343EA0060FFF788FEE87D2B7EBE
S1134590000240EA0340AB7D1843A06004F06EFDC6
S11345A001226B7EE06084F82230AB7EA384AB8B67
S11345B0E38395F8273003F01F03A37563750C4B51
S11345C09A708DE70622811804F1380005F0A8FDE1
S11345D00028CBD0062205F10C0104F1380005F0C7
S11345E09FFD0028C2D07BE720000010202E001081
S11345F0FC060010F8B50E4614461D46492800F284
S11346005983DFE810F04D004A00500054005B006D
S1134610620067006B00700075007A00D200DC0055
S11346201701860081008B00900098009B00A00079
S1134630C800CB00CE001101140157031A01A400D5
S1134640AB00B800B500BB0045013801620165014B
S11346506C016E01BB01F1010E02470257026202B6
S1134660600069026D0273027A028602F501030298
S11346708F02C7025501DC02570396024403480324
S1134680DB01ED0119025703A902AB023501BB029C
S11346901E024003D1024D0354030122AD4B5A754F
S11346A000232B600FE00222AA4B5A70F7E7AA4BB3
S11346B05B6BC3F3400323700123F2E702220988F2
S11346C0A54BF9B19A630120F8BDA34B5B6BC3F30F
S11346D00013F0E7102209889F4BF2E79E4B5B6BB7
S11346E0C3F30023E7E74FF4807209889A4BE8E7A5
S11346F0994B5B6BC3F34023DDE74FF400720988E9
S1134700954BDEE7DA63DEE72946104604F018FF2E
S1134710D9E72946104604F02DFFD4E78E4B5B6D94
S1134720C3F3C013C7E7802209888B4B002900F02C
S1134730AC829A65C7E7884B5B6DD1E74FF4807212
S11347400988854BF2E70322824B5A75BBE70520A3
S113475004F06EFD00F007002070ADE7098807291A
S113476000F2A882052041F0080104F06AFDAAE7DE
S11347700522784BE9E70622764BE6E7774B1A7871
S113478022705A7862709A78A270DA78E2701B7993
S11347902371052385E700226E4BD6E76D4B1B780A
S11347A089E70A786B4B1A708DE76D4BB3F84C2090
S11347B02270B3F84C301B0A6370022371E70A8835
S11347C040F6EA21634BDA80DA8892B28A4217D93A
S11347D001225A7040F66212DA80D988604AA2F83F
S11347E05010197D09293FF46EAFD988A2F84C10F6
S11347F00021D980B2F84C0080B202F017FC62E7C5
S113480000225A7040F6DC02D98889B2914240F6FF
S1134810E92188BFDA88DA80DA8892B28A428CBFCA
S113482040F6EA22DA88D7E704F0D6FE38E74D4BA3
S11348304D4A1A600B22474B87E76FF400600A88E1
S11348401318B3F5806F80F035824B886FF40061E4
S11348505918B1F5806F80F02D829A4200F22A82B5
S11348603F49A1F85220A1F854300422394B16E7ED
S11348700F22384B13E70B88B3F5807F00F21A82BE
S1134880374AC3F1360382F856300722314B06E724
S1134890002336481370537005F0EAFBC6B2324663
S11348A0A0703249E01CFFF711FC03362E600AE7C2
S11348B02F4805F0DDFBC6B204F8010B3246204652
S11348C02B49FFF703FC0136F0E701231370E8E6F8
S11348D00A88284B1A70224BB3F84C008CE7254BFE
S11348E05DE70023002000211E461D46224A04F1F4
S11348F0FF3CC2E90001C2E902011CF8010FA3F167
S11349002001C3F1200700FA01F120FA07F7394327
S11349109840083306430D43402BC2E90065ECD1AF
S113492000231E461D46073414F8010FA3F120018D
S1134930C3F1200700FA01F120FA07F73943984040
S1134940083306430D43402BC2E90265ECD101F064
S1134950F3FFB8E6FC06001000C00920443600103E
S1134960200000101C00001021BB0543BCA1000066
S11349700CA200001A2E0010980B00100022994B74
S1134980E01C1A60621E19680902196012F8011FFE
S11349901D68904241EA05011960F4D10222924B4C
S11349A04FF080515A7001229A74904AC2F89810BC
S11349B0A2888F4952BA0A800822C6E605228A4B89
S11349C08C495A700E225A7500231A4601330A2B59
S11349D001F8012BFAD1884B1A700122874BE2E6C9
S11349E00122814B9A706EE61268854B1A6072E759
S11349F0531E804A093413F8011FA34202F8011B15
S1134A00F9D101227D4B1A700A234AE600231A4683
S1134A10784901330A2B01F8012BFAD177490A703E
S1134A203FE6774B1B6813701A0A62701A0C1B0E50
S1134A30A270E370042334E613886D4A5BBA1380D2
S1134A4041E6704B1288198852BA0A441A801A88AF
S1134A506D4912F4004F6D4A0ED04FF4A0701B88BC
S1134A605B429BB2B0FBF3F313801388684A9BB29A
S1134A70126813440B6026E6188800B2002806DD8D
S1134A8018884FF4A07300B293FBF0F3ECE7002313
S1134A901380EFE700220B885E4C6363524B2A605D
S1134AA09A7003225A7009225A7502F0D1F9B4F8A7
S1134AB04C00A1E600235749541E0A68DA40083323
S1134AC0202B04F8012FF8D1B4E71068FFF7E6FBB8
S1134AD00122504B5A64F6E51323137037236BE617
S1134AE04C4B1B69003B18BF0123E4E50B88494A82
S1134AF0003B18BF01231361E5E502F0D3F9014639
S1134B0028B140222046FFF7E1FA4023C9E520708E
S1134B10D2E50022344B2A605A700A225A7502F0F8
S1134B2097F9D8E6087804F083FB030A23706070D1
S1134B3043E64988307818E603EB4303E2185178DA
S1134B409278E05C42EA012104F07BFB0135318874
S1134B50EBB28B42F0D3B6E50025F8E70026F7B2B6
S1134B60384604F065FB0136030A2E2E2770637065
S1134B70A07004F10304F2D1872392E592791A4ECE
S1134B8007322146D2B206F11C00FFF79FFA102328
S1134B90737585E5144D0622214605F15600FFF78D
S1134BA095FA0C236B758EE58A88FF2A00F28280C1
S1134BB01848214682655C30FFF788FA83E59579C9
S1134BC0302D77D845BB134C2946062204F1380012
S1134BD06564FFF7F1FA0622294604F13E00FFF767
S1134BE0EBFA70E5282E0010FC06001000C0092026
S1134BF02C2E0010060C0010100C0010050C0010D8
S1134C00202E00102E2E0010382E0010302E0010F2
S1134C10342E001020000010274D931D2A4613F84F
S1134C20011DA34202F8011FF9D1002106222348E5
S1134C30FFF7C2FAFF2605232149A079082819D8CD
S1134C4060B100210A460131CCB25208A04242F0C0
S1134C508002F8D81A490B4483F83E20052315F83E
S1134C60012F013BA97913F0FF0302EA01022A7024
S1134C70F5D12DE7CA1882F83E60A279013B083AC3
S1134C80DBB2A271D9E701220E4BDA651BE50A7883
S1134C900C4B9A7517E50A780A4BDA750D2254E520
S1134CA021462A683088BDE8F84003F029BD112266
S1134CB0044B4AE5002007E5570000105E00001091
S1134CC020000010FC060010F8B507460E4602F05E
S1134CD0CFF81D4D044620B9EB7C43F00403EB747C
S1134CE0F8BD042F077018D1184A40F635411368EF
S1134CF01B0DC3704FF0402312689B68C2F313026C
S1134D0001FB023343603222314604F10E00FFF707
S1134D10DDF9EB7C63700023E1E72B7AC370EB6869
S1134D2043602B8A623B8370094B1B784372094BA7
S1134D301B780372288A80B202F062F9064BA072D3
S1134D401B78E372DFE700BFFC060010202E001082
S1134D50192E0010182E0010122E00102DE9F84301
S1134D603A4EB6F84C0080B201F00EFF00223849EA
S1134D7013460D4615F8014B0133E4071F2B44EA93
S1134D805202F7D13568CC5CE40744EA52029542FA
S1134D9056D1203919444FF07F090023DFF8B4E0DD
S1134DA02D4D704490F83D20002788463C46032B47
S1134DB018F8010F0CDD0EEB020C9CF865C00132F3
S1134DC080EA0C00B2FBF9FCCCEBCC1CA2EB0C028D
S1134DD0A0400134082C47EA0007E8D128680831CC
S1134DE0C75401332E2BDFD1336973B901202968ED
S1134DF0FFF76AFF1022194B9A63194B2868D3F8FE
S1134E00803398470120BDE8F8832B68F0685C790B
S1134E10296804F03F04A21C043101F03BFF2A6816
S1134E2004F10803D15C2A68E31DD35C2A680634C4
S1134E30125D1B0243EA014313439842E2D1D5E7D2
S1134E400133B3F5D87F9ED1DCE700BF200000100A
S1134E505C0700100CA20000D02E001000C0092036
S1134E60FC0600102DE9F04106460F46904601F07D
S1134E70FFFF0F4D044628B9EB7C43F00403EB74A9
S1134E80BDE8F081067000260A4BC670B3F84C30BA
S1134E90C0F80480623B83704681322239460E306A
S1134EA0FFF714F9EB7C01206370EE74E8E700BFB0
S1134EB0FC0600102000001010B54FF040231B68C2
S1134EC0DC0766D53D493E4B0A6818680244013246
S1134ED01A6000220A603B4A1868517811B151786F
S1134EE0012906D1196811F07F0F22D10121917097
S1134EF01FE05178022903D1196811F0010FF4E77A
S1134F00517803294BD130490C7D032C11D18C6984
S1134F10001B80070DD1888B01388883888B80B271
S1134F20002837D1012090700A8C02440A84CA8B6D
S1134F308A832648264A0168B9B1118889B2A1B981
S1134F401C6801688C4210D32249234C0988090447
S1134F5054BF012141F669011180196821601F497C
S1134F600988246889B22144016040F634401188DC
S1134F7089B2814282BF1968023119604FF0402121
S1134F8013889BB203F634438B61002313800123FF
S1134F900B6010BD4FF48071114AD163C9E7517899
S1134FA00529C6D108490F48B1F84E10046889B2E2
S1134FB0186821448142BCD198E700BF282E001014
S1134FC0202E0010FC06001020000010382E0010C7
S1134FD02C2E00102E2E0010342E0010302E001017
S1134FE000C00920242E00100422094BC3F8AC2071
S1134FF04FF08052074BC3F89C200122064B1A70D5
S1135000064B5A78022A04BF00229A74704700BFE4
S11350100080024000C009201D2E0010FC06001074
S113502010B5284B1A7D012A11D01A7D082A0ED0FA
S11350301A7D042A0BD01A7D092A08D01A7D0A2A5F
S113504005D01A7D0C2A02D01A7D0F2A38D11E4AA7
S11350501168C80734D55168C90727D50121916063
S11350605A7840F63544022A04BF4FF08051174A5B
S1135070174808BFC2F898104FF0402201689268A0
S1135080C1F3130104FB0122DA600268120D1A72E3
S1135090104AB2F84C201A820F4A104B1168186853
S11350A010600F4A1960136801331360064BDA6805
S11350B0D20705D501221A610A4A13680133136025
S11350C010BD00BFFC0600100040005000C00920C5
S11350D0202E001020000010CC2E0010D02E001026
S11350E0C42E0010C82E001008B50F4B1B7D092BD1
S11350F016D102F0AFFA0D4B1A68100613D55A6890
S1135100110604D5802200219A60094A1160DA68E8
S1135110120608D580221A610222064B9A63FEE722
S1135120FFF77EFFE7E708BDFC06001000400050D3
S11351304C36001000C009202DE9F04FC1B00C46D8
S1135140904603F09BFF5D4F0646B7F84C00DFF82E
S1135150709180B201F018FD484490F83D30EE465D
S113516000204FF07F0A844270D847F6FF710D206B
S113517004F067F842F62231122004F062F841F29A
S11351804B31142004F05DF840F6E141202004F096
S113519058F8B7F84C10022089B204F052F80B21E9
S11351A0052004F04EF84021032004F04AF81021B1
S11351B0232004F046F82C20B1B204F042F8310C5C
S11351C02D2004F03EF8082004F032F8C0F3080162
S11351D0074641F49841082004F033F804F0BCF881
S11351E04006FBD5612004F0BEF804F0B5F8410791
S11351F0FBD54FF48072334B9A6380229A650E205C
S113520004F016F800F01F000F28F8D10026202320
S1135210DFF8B090CCBB0E2004F00AF800F01F00B9
S11352200F28F8D14FF48073264C6420E36304F014
S11352309AF804F091F84307FBD4802339460820F8
S1135240E36503F0FEFF41B0BDE8F08F07250022BF
S113525018F800C009EB030B9BF865B00CF00101D2
S113526081EA0B0103F1010BBBFBFAF3A940C3EB89
S1135270C313013DABEB03034FEA5C0C42EA0102AA
S1135280E8D20EF8012B01306DE7D9F8542052070B
S1135290FBD59C42A04623BF9846E51A4446002508
S11352A020460DEB060128BFEDB203F0DDFF6320BD
S11352B004F059F82C4610234644ABE720000010B4
S11352C00CA2000000C0092008B547F6FF710D20AC
S11352D003F0B7FF42F62231122003F0B2FF42F28C
S11352E04B31142003F0ADFF40F60141202003F0C0
S11352F0A8FF0B21052003F0A4FF4021032003F0A5
S1135300A0FF04F029F84206FBD5612004F02BF835
S113531004F022F84307FBD54FF48072074B9A63DD
S113532080229A650E2003F083FF00F01F000F28EF
S1135330F8D1BDE80840632004F015B800C0092086
S1135340F8B500235F4C604AA370604B1968116084
S1135350627852B9022003F06BFF5D4BB3F84C3016
S11353609BB2013B984231D1F8BD6278012A5DD1EC
S1135370584B574A1E78584B584D1F78B2F84C304A
S11353802033A2F84C30B2F84C309BB2B3F51B6F0B
S113539082BFB2F84C304F3BA2F84C30B6B1AFB13B
S11353A0B2F84C00B2F84C3080B2A0F66211002979
S11353B0B8BFA0F65B119BB2C910695CA3F6621377
S11353C003F0070341FA03F3D807D7D5642003F0A9
S11353D0CAFF03F0C1FF4207FBD43D4D237DB5F85E
S11353E04C10022B18BF01F1FF31D8B20EBF89B2A5
S11353F0022089B203F025FF637823B1B5F84C008D
S113540080B201F013FE612003F0ADFF03F0A4FFAE
S11354104307FBD50123A374237D022B08BF63201C
S1135420BDE8F84018BF622003F09DBF6278052AEA
S11354302CD1284B264A1E78284DB2F84C30203304
S1135440A2F84C30B2F84C309BB2B3F51B6F82BF5C
S1135450B2F84C304F3BA2F84C304F2EB6D0B2F8D5
S11354604C00B2F84C3080B2A0F662110029B8BFEB
S1135470A0F65B119BB2C910695CA3F6621303F03A
S1135480070341FA03F3D907D7D49FE76278022AC6
S113549006D1186801F0DAFA0D4BA3F84C0095E731
S11354A06378032B06D10A4D284601F09DFBA5F82D
S11354B04C008BE76378042B02BFA388044AA2F84C
S11354C04C3083E7FC060010242E0010202E001020
S11354D020000010100C0010050C0010060C001029
S11354E02DE9F8431023494E494CF36301F0B0FC15
S11354F003F022FE01F062FE01F0D6FEFEF7DAFEB2
S113550001F0BCFD637D012B08D0637D082B05D021
S113551001F0E8FEBDE8F84301F0C8BD1023F363D1
S113552001F016FD6FF07F053A4FDFF8EC803B6821
S1135530DFF8E890002B46D01023394DB3632B6875
S11355401BB1E37C43F00203E3743B68012B82BF8D
S1135550E37C43F00103E374A37C2BB1E37C43F0CD
S11355602003E3740023A3742E4BB3F84C0080B2E1
S113557001F022FD2C4A98F800301278134306D02B
S1135580E37C43F00803E374002388F80030274BDE
S1135590274A93F9003092F9002035339342B8BF7B
S11355A0E37C4FF00000BCBF43F01003E374214BD5
S11355B01968FFF789FBD9F8000001F0B5FC002356
S11355C03B602B609EE7062003F032FE98F8003023
S11355D040F307205BB115F1800F08D1134B93F909
S11355E0005036358542B8BF05466DB2284601F0F5
S11355F0C5FCD9F8000001F097FCA37813B1FFF7BC
S11356009FFE94E74FF48073F36390E700C0092092
S1135610FC060010C42E00101D2E0010202E0010B9
S1135620C82E0010200000101C2E00101B2E00108D
S1135630182E0010D02E00102DE9F04385B08F4BAA
S1135640D3E9025445F3000383F42A4383F0AA0305
S1135650E8B29EB2FEF710FE8DF80000C5F30720F5
S1135660FEF70AFE8DF80100C5F30740FEF704FEBD
S11356708DF80200280EFEF7FFFD8DF80300E0B25E
S1135680FEF7FAFD8DF80400C4F30720FEF7F4FDDD
S11356908DF80500C4F30740FEF7EEFD8DF8060013
S11356A0200EFEF7E9FD8DF80700E01780F05500A5
S11356B0C0B2FEF7E1FD8DF808007720FEF7DCFDAF
S11356C08DF809006620FEF7D7FD8DF80A005520F5
S11356D0FEF7D2FD8DF80B004420FEF7CDFD8DF8CA
S11356E00C003320FEF7C8FD8DF80D002220FEF7D4
S11356F0C3FD00248DF80E001120FEF7BDFD2346E6
S11357008DF80F0046FA03F2C3F10F0102F0010213
S11357108A4001331443102BA4B2F3D147F6FF712E
S11357200D2003F08EFD42F62231122003F089FD94
S113573041F24B31142003F084FD40F60141202056
S113574003F07FFD21462C2003F07BFD00212D205A
S113575003F077FD4A4B0220B3F84C10494D89B24F
S113576003F06FFD0B21052003F06BFD2B78B3BB19
S11357702921032003F065FD01F0CEFC03F0ECFDCC
S11357804406FBD5612003F0EEFD03F0E5FD400780
S1135790FBD580223C4B9A650E2003F049FD00F0B6
S11357A01F000F28F8D1632003F0DDFD142123200E
S11357B003F047FD082003F03BFDC0F308018046D9
S11357C041F49C41082003F03CFD00242F4F2E4E51
S11357D06B7D022B48D14FF04029640808E02B78F8
S11357E0012BE3D14021C4E7AA781AB1FFF7A8FD41
S11357F040F6C9033A68B4EB520FF5D0D9F8082043
S11358009A42F1D94FF480733C6869461020B3631F
S113581003F02AFD0E2003F00BFD00F01F000F28FB
S1135820F8D14FF480736420F36303F09CFD03F01C
S113583093FD4107FBD403F08FFD4206FBD56120A5
S113584003F091FD03F088FD4307FBD50E2003F020
S1135850EFFC00F01F000F28F8D1632003F083FD54
S1135860386801F061FBB3E78022074B414608200A
S1135870DA6503F0E6FC05B0BDE8F083980B001090
S113588020000010FC06001000C00920202E00108B
S113589008B50E48FEF702FD00220D4B0D480E49D7
S11358A09A83C3E902011A84C3E90A229A641A6139
S11358B09A829A759A61DA8383F822209A8483F80B
S11358C030205A86054B9A7008BD00BFD6BE898E1B
S11358D02000001055555500AAAAAA00FC06001085
S11358E010B5064C4FF48472002104F56170FEF784
S11358F063FC4FF0FF33C4F8843410BDFC06001081
S11359002DE9F0470123724C074623702075FFF7F9
S1135910BFFF4FF0E0234FF08072C3F80021102244
S11359206C4B0026DA6301F093FA03F005FC01F0F6
S113593045FC01F0B9FCFEF7BDFC01F09FFBDFF86C
S113594098A1DFF89881637DBB4240F08D80E388A5
S11359509BB2CBB1642003F006FD03F0FDFC4207CB
S1135960FBD4BAF84C100220013989B203F069FC67
S1135970612003F0F8FC03F0EFFC4307FBD5622041
S113598003F0F1FC0023E380A378524D002B79D07F
S1135990FFF7D6FC1023EB6301F0DAFA6FF07F0512
S11359A0DFF83C91D8F800301BB9D9F80030002B4F
S11359B06CD0D9F800301BB1E37C43F00203E374EC
S11359C0D8F80030002B7AD0D8F80030012B82BFF1
S11359D0E37C43F00103E374BAF84C0080B201F0B5
S11359E0EBFA404A4049137809780B4306D0E37C2C
S11359F0022643F00803E374002313703B4B3C4A34
S1135A0093F9003092F900203533934255DA022697
S1135A10E37C43F01003E37436494FF4C872A1F5F4
S1135A20C870FEF753FB00233349DFF8D0C00D469E
S1135A300022DCF800000132C05CDCF800E0C009A0
S1135A4005F8010F1EF80300082A4FEA40000EF87B
S1135A500300EED10133322B01F10801E7D1D4F870
S1135A608C342748984780BB4FF0E0234FF0807276
S1135A70C3F88021FEF7CCFC01F034FCBDE8F0470C
S1135A8001F014BB4FF48073EB6383E7062003F04B
S1135A90CFFB144B40F307201B785BB115F1800F4B
S1135AA008D1124B93F9005036358542B8BF0546EC
S1135AB06DB2284601F062FA74E7002EACD10023DF
S1135AC0C8F80030C9F800303DE7013EF6B2F6E709
S1135AD0FC06001000C0092020000010C42E001095
S1135AE0C82E00101D2E00101C2E00101B2E00109E
S1135AF0182E0010EC080010EB080010D02E001037
S1135B005C0700102DE9F04F91B00123AE4CAF4D6E
S1135B1023702B754FF080724FF0E0232075C3F88B
S1135B2000211022AA4B0746DA6301F091F903F031
S1135B3003FB01F07DFB01F0B7FB286803F09EFA3C
S1135B40FEF70CFCDFF88C92637DBB4240F01581BC
S1135B50E3889BB2CBB1642003F005FC03F0FCFBAB
S1135B604307FBD4B5F84C100220013989B203F085
S1135B7068FB612003F0F7FB03F0EEFB4607FBD55F
S1135B80622003F0F0FB0023E3801022904BDA63E1
S1135B9001F0DEF9904AD9F8003033B9136823B91B
S1135BA0A37813B9637DBB42F5D0062003F040FB14
S1135BB08A4B000A18708A4B1870637DBB4240F010
S1135BC0DC80DFF81482D8F800301BB1E37C43F0AA
S1135BD00203E374A37803F0FF01002B40F09680E6
S1135BE0D9F80030002BAFD04FF0300A04A8524649
S1135BF0FEF7E2FAB5F84C002B6880B2039300F08C
S1135C00C3FF784B0AFB00FA93F800C059789878E0
S1135C100904DA7841EA0C61114341EA002003F0F7
S1135C202DFA714E06EB0A0B56F80A6046400496AC
S1135C30C6F3052606F1020ABAF1270F66D8B208A0
S1135C40092A684B02F1020109D1684AD2F81031DD
S1135C50D8070FD5D8F80030002BF7D00AE003EBB3
S1135C6081036249D1F804219A4203D2D8F8002072
S1135C70002AF7D05E4A6120536A23F0010353627D
S1135C8003F071FB042357495A1C11F803E011F87F
S1135C9002C09A1C885CDA1C8A5C019342EA0E6298
S1135CA042EA0C4242EA002003F0E8F9019B5BF867
S1135CB0031023F003024032043348406A442C2B7F
S1135CC0484942F8300CDFD12B69002B64D11022F3
S1135CD04FF0E0264FF0807A3D4B03A89A63D4F846
S1135CE08033984703A90120C6F880A1FEF7ECFF92
S1135CF0404BC6F800A11A684FF0402340F63541E6
S1135D009B68C2F3130201FB0233AB64612003F00E
S1135D102AFB374B5A6A22F001025A62DA685107A9
S1135D2050D4344B40F635411A684FF040239B68F9
S1135D30C2F3130201FB0233A96C03F1434202F5DF
S1135D40A002994288BF13462A7D023AD2B2012AA0
S1135D5003D8294A5B1A934202D8A369012B63D161
S1135D60FFF796FD00234FF48071194AA361D163B4
S1135D70A27D012A42D1A37563754FF0E0234FF051
S1135D808072C3F88021FEF743FB01F0ABFA11B037
S1135D90BDE8F04F01F08AB95246E86804A900F062
S1135DA079FF06F140030DEB030616F82D3C16F8B7
S1135DB02C2C1B0243EA024316F82E2C1343984260
S1135DC085D0A3E79A68A9E7FC060010200000101C
S1135DD000C00920C42E0010C82E0010182E001078
S1135DE0192E00104C2E0010F0A2000000400050AC
S1135DF000000340202E001080F0FA020A2FBCD0CD
S1135E00012364202B7503F0AEFA03F0A5FA4207D0
S1135E10FBD4B5F850309BB203B3B5F85030A5F8B5
S1135E204C300123C4F890342C20E98803F009FA9B
S1135E302D20A98803F005FAA3780BB1FFF780FAA7
S1135E40A369002B0DDDFFF73FFAA369013BA361B2
S1135E500023C9F80030C8F8003075E640F6621334
S1135E60DDE701F0E5F901F01FFAD4F8903443B10D
S1135E70286803F003F9FEF771FA0023C4F890349C
S1135E80E6E703F069FA4307FBD5622003F06BFAF7
S1135E90DEE700BF70B58EB015460C4606463222CA
S1135EA0002101A8FEF788F9312D2A46214628BF92
S1135EB031220DF105008DF80460FEF707F9052085
S1135EC001A9FEF701FF0EB070BD000070B540F6E9
S1135ED064103349334CB1F84C309BB2834212D135
S1135EE0314B40F635411A684FF040239B68C2F3AA
S1135EF0130201FB0233C4F8943440F66613A38002
S1135F000123A37048E040F66612B1F84C309BB20E
S1135F10934242D1244B40F635451A684FF0402352
S1135F209B68C2F3130205FB0233D4F8945403F1C3
S1135F30434202F5A002AB4238BF134641F66A065B
S1135F40CA8B06FB02335B1B43F2D4055543B3FBF8
S1135F50F5F3242B21D8154852080344252093F83F
S1135F6064388A838B750133B3FBF0F5002200FBA0
S1135F70153303204B750E4B0A848A61A2700A61A3
S1135F80087501221631C4F880336070FFF782FF70
S1135F90A37D0BB12823A36170BDA080B0E700BF2F
S1135FA020000010FC060010202E00100CA200009F
S1135FB0B544000038B54FF04022234B234C1B68F6
S1135FC0956840F63542C3F3130302FB0355204B97
S1135FD0D4F89824EB18AA4288BF1D4646F2A713AA
S1135FE0AA1A9A422AD9D4F884341A49934284BF0B
S1135FF01346C4F8842403F56133174A03F2523379
S1136000B3FBF2F3CA8B9BB29A4218D1D4F888340A
S11360100133052BC4F888340ED1104B0222C4F886
S1136020803340F66413A380042363700123104675
S11360301E31A370FFF72EFFC4F8985438BDCB83EC
S11360400023C4F88834F7E7202E0010FC06001063
S1136050C0ABC6C220000010A40E0700CD5E000035
S113606070B5184D2C695CBB0379012B28D1437999
S113607033BBC379027A86791B0243EA0243011DCA
S1136080022243EA060000F0D9FD2246A86020FA65
S113609004F3C4F1170103F0010301348B40182CFD
S11360A042EA0302F3D10120EA60074B074A286160
S11360B0C3F8802306490322BDE87040FFF7EABE17
S11360C070BD00BF20000010FC060010B55F00008A
S11360D02800001070B50022154B03F5617656F8C0
S11360E03210814207D103EBC203D3F88823013273
S11360F0C3F8882370BD0132202AF0D14FF0FF315C
S113610000220D4606EBC2046468AC420EDB002D8F
S1136110ACBF2C4611460132202A05D103EBC10342
S11361200122C3F88403E3E72546EBE71146F2E7CF
S1136130FC0600102DE9F04F97B006AA9146694B72
S1136140019003F14005144618685968083303C4E4
S1136150AB422246F7D14D460024DFF88C81634FD1
S1136160B8F84C007F2680B200F00EFD384490F859
S11361703D301021284607EB030C02789CF865C0DB
S1136180013382EA0C0200F8012BB3FBF6F2013969
S1136190C2EBC212A3EB0203EDD10134042C05F1CE
S11361A01005DDD12026019B03F13005504B02ACD4
S11361B00FCB84E80F00002348469C46019A014611
S11361C0324404E00132AA4201F1010107D092F8FD
S11361D000A091F800E0F245F4D044F823C0013364
S11361E0042B00F11000E9D100232268002A6CD1AD
S11361F00133042B04F10404F7D10136B6F53C7FD6
S113620005F10105D2D100233A4C04F5617202EB89
S1136210C3014968032953DD04EBC303D3F88403A2
S1136220FEF73CF8344B0422C4F88C34334B2E492B
S1136230C4F8803300242046C8F81040FFF72AFE33
S1136240204617B0BDE8F08F032A1AF8011F0FDDAE
S1136250DFF898B09B449BF865B081EA0B0103F129
S1136260010B7F23BBFBF3F3C3EBC313ABEB0303C0
S11362708140013008284CEA010CE5D121680EF177
S1136280080E01F802C001320A2A04D04FF0000CB3
S1136290F2466046D8E72368D97823689B78226859
S11362A01B045078226843EA01631278134343EADB
S11362B00020FFF70FFF01202168FEF705FD9CE792
S11362C00133202BA3D10120BBE7B8F84C000C4CC0
S11362D080B200F059FC3844002290F83D30A5F11A
S11362E0310ED3E795AA0000200000100CA2000094
S11362F0D8AA0000FC0600105D4D0000616000009B
S1136300D02E001070B5174D174C6B7D0A2B00D0A2
S113631070BDFFF7E5FAB4F84C30DB0744BF40F634
S11363208813A4F84C30636C53B9B4F84C0080B2B1
S113633000F07CFE0D4B0A20C5F88C34FFF7E0FA20
S11363406B7D0A2BDEB2E3D1042221460020FFF745
S1136350A1FD074B3046C5F8803300232361FFF7C6
S1136360D1FBD2E7FC0600102000001035610000CC
S113637061600000F0B589B0334F202200216846E7
S1136380FDF71AFFBE6D314CFF2E03D90023637550
S113639009B0F0BDB31D8DF8013094F85B3032467E
S11363A08DF8023094F85A3007F15C018DF803300F
S11363B094F8593002A88DF8043094F858308DF8C8
S11363C0053094F857308DF8063094F856308DF82F
S11363D00730FDF77BFE06F10802D5B22A4669466E
S11363E0F86800F011FC05F120030DEB030202F83C
S11363F0200C030A000C02F81F3C02F81E0C00F0EB
S11364008BFE4FF0E0234FF08072114DC3F8002152
S1136410637D0C2B06D04FF0E0234FF08072C3F85D
S11364208021B5E706F10B016A460A48C9B2FEF7B6
S113643083FE2B6823F07F4303F5A0732A6822F0C0
S11364407F429342FAD8E3E720000010FC060010D4
S1136450202E0010D6BE898E30B58BB02D2002F0D0
S1136460E7FE030A8DF805002C208DF8043002F0B5
S1136470DFFE030A8DF806308DF8070000F0E8FC13
S113648000F04AFE02F068FF4106FBD5612002F0ED
S11364906AFF02F061FF4207FBD51023124C02256C
S11364A0A3638023A3654FF48073A3650E2002F0D9
S11364B0BFFE00F01F000F28F8D1622002F053FF46
S11364C0E56302F049FFC306FBD502A92020A563BA
S11364D002F008FF002001A9FEF7F6FB034B186841
S11364E000F022FDE2E700BF00C00920202E0010CA
S11364F008B5202002F09CFE08B1FFF7ADFF03228F
S1136500024B1A70BDE80840FEF7EABFFC06001013
S11365102DE9F0411023344C2D20257D237502F004
S113652087FE80462C2002F083FEA18B07462D2097
S113653002F087FE2C20E18B02F083FE572103201A
S113654002F07FFE41F24B31142002F07AFE40F655
S11365506171202002F075FE0220218C02F071FE90
S1136560052094F8231002F06CFE02F0F5FE4106BB
S1136570FBD5612002F0F7FE02F0EEFE4207FBD5E8
S11365804FF48072194B9A6380229A650E2002F0B0
S11365904FFE00F01F000F28F8D194F82200144990
S11365A002F062FE632002F0DEFE0E2002F040FEE6
S11365B000F01F000F28F8D14FF480730B4E6420B5
S11365C0F36302F0D0FE02F0C7FE4307FBD480233E
S11365D041462D20F36502F034FE39462C2002F0AA
S11365E030FE6575BDE8F081FC06001000C009208E
S11365F0200700102DE9F0478EB010233D4CA36313
S113660000F026FC00F088FD802342F62231A365C9
S1136610122002F016FE41F24B31142002F011FE5A
S113662040F20111202002F00CFE2921032002F087
S113663008FE02F091FE4106FBD502F08DFE10F03B
S11366400404FAD1DFF8B090DFF8B08099F815307F
S1136650042B05D01022274BDA630EB0BDE8F08777
S1136660B8F85250DFF898A0ADB2B8F854309BB2E5
S1136670AB42EBD3691E022089B202F0E2FD612035
S113668002F071FE02F068FE4207FBD5622002F0C0
S11366906AFE4FF4FA730093009E013E0096002EAA
S11366A0FAD104EB440707F138030DEB0307062086
S11366B02B0A07F8343C07F8335C02F0B9FD0134C7
S11366C0E4B2000A102C07F8320C08D1042001A906
S11366D0FEF7FAFADAF8000000F026FC34466420EB
S11366E002F041FE02F038FE4307FBD40135ADB29F
S11366F0BBE700BF00C00920FC060010200000100A
S1136700202E0010F0B585B0404B8022029340F655
S11367109E13ADF80C303E4B42F622319A6512209E
S113672002F08FFD41F24B31142002F08AFD40F259
S11367300111202002F085FD2921032002F081FDB2
S1136740F121062002F07DFD02F006FE4106FBD594
S113675002F002FE10F00404FAD12E4E2E4F2C4DFE
S1136760737D072B01D005B0F0BD04AB03EB4403EC
S113677033F8081C0220013989B202F062FD61205D
S113678002F0F1FD02F0E8FD4207FBD5622002F0C1
S1136790EAFD4FF4FA730193019B013B0193002B33
S11367A0FAD1062002F044FD97F8563040F3072052
S11367B05BB298421EDD012C18D0022C18D04FF485
S11367C08073AB6303230134B4FBF3F303EB4303A0
S11367D0E41A124BE4B2186800F0A6FB642002F03D
S11367E0C2FD02F0B9FD4307FBD4B9E71023E8E783
S11367F0AC63E7E7012C05D0022C05D04FF480737D
S1136800EB63DFE71023FBE7EC63DBE76C09850947
S113681000C00920FC06001020000010202E0010EB
S113682008B54FF0E0234FF4E022C3F8242D02F022
S113683063FE00F076FC3A4800F0E8FAFDF7E8FD64
S113684000F08AFC002001F081FF3649364801F04F
S1136850CFFF364D364C286800F066FB627D237D01
S11368609A42F8D0637D112BF5D8DFE803F0561473
S113687016283D2F37401B1D220925430F494E5131
S1136880012002F015FC02F041FEE4E70E2323751B
S1136890FEF726FEDFE70123F9E702232375FEF75F
S11368A0CBFED8E70823F2E70923237501F080F82B
S11368B0D1E7FFF727FDCEE7FFF75CFDCBE7032326
S11368C020461C49237501F075FCC4E705231948CB
S11368D0237501F081FA00236375BCE7062315488C
S11368E0237501F0B3FBB6E7FFF784FEB3E7FFF7C8
S11368F009FFB0E70D232375E07D01F0C9FEAAE787
S11369000F232375FFF7F4FDA5E7FFF701FEA2E7C8
S11369101123237502F0BAFA9DE7FDF779FD9AE792
S1136920F54500000CA20000C7A10000202E0010B5
S1136930FC0600106C000010F0B500210020414A54
S11369404F25C2E904010021136802F11804B1FBC8
S1136950F5F005FB101002319E2904F8010BF6D165
S1136960C3F3C4511C09D80882F86710C3F3C341A8
S11369709E085D0800F0080782F8681004F0100112
S1136980394305F0020C06F0040747EA0C073944C2
S113699003F00107394482F86910C3F388219F0981
S11369A0A2F86A1000F00400D90906F0020601F00A
S11369B0400107F02007304305F001055B09394326
S11369C0284403F0100304F00804014423430B4457
S11369D082F86C3092F86D3053B3002421461A4E7D
S11369E00020054616F8013B53EA000721D1013186
S11369F0C9B20A292C44F3D100234F25194682F841
S1136A007840B3FBF5F005FB1030C0F3C404144424
S1136A1094F86E4000F007063441E40748BF4C1C6C
S1136A2003F1020342BF89180876E1B29E2BE8D134
S1136A30F0BD13F1FF3C40F1FF37013503EA0C03CD
S1136A403840D1E7980B0010060C00102DE9F043F4
S1136A5087B04A49C0F3400591F86940C5EB451237
S1136A6084EA104404F01F04544091F86720B1F8FC
S1136A706A60434B82EA505286EAD01602EB9002D7
S1136A8003EAD00391F8680002AF4240BE460020FA
S1136A90C6F30806E4B202F01F0246FA00FC013015
S1136AA00CF0010C09280EF801CBF6D1002007F1F7
S1136AB0080C44FA00F6013006F0010605280CF82B
S1136AC0016FF6D16E46EC46002042FA00F4013024
S1136AD004F0010405280CF8014BF6D10D22DFF86F
S1136AE0A4C00CF10E0EB85C88B112F80C4004F18D
S1136AF018000DEB000412F80E0014F8188C18306E
S1136B00684410F8189C04F8189C00F8188C013A92
S1136B10E9D20022104616F8014B84400130224489
S1136B200528D2B2F7D191F86C00104491F86D2089
S1136B3092B94F24B3FBF4F204FB123303EB451375
S1136B400344B3FBF4F204FB12330B44187E00F647
S1136B50621007B0BDE8F08391F87820B3FBF2F43B
S1136B6002FB143303EB45130344B3FBF2F002FBC3
S1136B701033194491F87900E9E700BF980B00102D
S1136B80F0FFFF01E8AA0000A0F6621303EBD37341
S1136B905810C3F34F0353B10B2B02D80138C0B2C2
S1136BA070470C2B05D0262B05D80238F7E7252093
S1136BB0704726207047272070470A2803D800F220
S1136BC0B24040007047242802D800F2B340F8E7EE
S1136BD0252806D0262840F67A1018BF4FF41B60EB
S1136BE0704740F66210704710B50246417D084672
S1136BF0FFF7E3FF937D0B442521B3FBF1F401FB85
S1136C001433537510BD0000F0B500240A4F20F072
S1136C107F40944200DBF0BD08250E5D86EA000348
S1136C2043F300033B40013D4FEA560683EA50001C
S1136C30F4D10134EDE700BF0060DA00F0B503469B
S1136C40013A002A0EDA0022104623FA02F1C2F1B8
S1136C50170401F001010132A140182A40EA0100A1
S1136C60F3D1F0BD07248F5C47FA04F05D0000F017
S1136C700100DE0D25F07F4580EAD3532B4383F4D6
S1136C80340080F44040002E18BF0346013CEBD290
S1136C90D6E7000030B50024074D20F07F40944231
S1136CA000DB30BD0B5D01344340DBB255F82330CB
S1136CB083EA1020F3E700BF7C010010F8B5044616
S1136CC090B2FFF761FF134F4FF07F0C3B5C2046FF
S1136CD02144814200D1F8BD0026324690F800E0FC
S1136CE0C2F10705FC1894F828404EFA05F505F0A2
S1136CF0010501336C40B3FBFCF594400132C5EB54
S1136D00C515082AA3EB050346EA0406E8D100F8F2
S1136D10016BDEE704AB0000F8B50C460546C02263
S1136D2000212046FDF748FA01260023681E043599
S1136D3010F8012F03F1080712F001011BBF44F8FA
S1136D402360D4F8BC1044F8231004EB010C1CBFDE
S1136D508CF89430013103F1010318BFC4F8BC105E
S1136D60252B03D0BB424FEA5202E5D1A842DFD122
S1136D70F8BD51F8203043B9D1F8BC30B0FBF3F280
S1136D8003FB1200014491F89400704713B50B46BD
S1136D9041881268ADF800108188ADF80210C188EE
S1136DA04078ADF8041004490C686946A047431EB6
S1136DB05842584102B010BD600C001030B587B085
S1136DC00446694601A802F0D5FB9DF80450D5B9E4
S1136DD0204601AA403412F8013F80F87D50190979
S1136DE09F2B03F00F038CBF57313031092B8CBF1D
S1136DF05733303380F87C1080F87E3080F87F5031
S1136E0004308442E7D107B030BD000010B5044619
S1136E1002F084FC0A48FFF7D1FF094802F0A6FEFD
S1136E20084A022042F8044B074902F06DFC074966
S1136E30FF2002F085FE012002F00FFD002010BDAE
S1136E407C050010600C00108D6D0000E4A10000B2
S1136E500021054B4FF400520448C3F80811C3F84D
S1136E600C11FDF7A9B900BF600C0010740D0010DF
S1136E700A4AD2F80811D2F80C3103F07F03581CE7
S1136E80484010F07F0007D0D2F80C1104480131BB
S1136E90C2F80C1100EB8310704700BF600C0010A7
S1136EA0740D00100A4AD2F80831D2F80C1103F01C
S1136EB07F0301F07F018B421FBFD2F80811054800
S1136EC0013100EB831014BFC2F808110020704791
S1136ED0600C0010740D001013B50446FFF7E2FFB8
S1136EE00F4B014640B140228220C3F8104102F00A
S1136EF0E3FC012002B010BDD3F810210949A21A05
S1136F008A420AD9032282208DF807200DF1070155
S1136F100122C3F8104102F0CFFC0020EAE700BFD1
S1136F20600C0010801A060038B50446822002F076
S1136F309FFC8206054602D42046FFF7CDFF6B0670
S1136F4002D42046FFF7C8FFBDE8384002F01ABD5E
S1136F5008B59E2200210848FDF72EF90023064AB1
S1136F6082F89E30C2F8A030802382F8A4307F23B8
S1136F7082F8A53008BD00BF742D00100D4B93F9A5
S1136F80A4208242B8BF024683F8A42093F9A52026
S1136F908242A8BF024683F8A520D3F8A02002EBC2
S1136FA00022C3F8A02093F89E20013283F89E208B
S1136FB0704700BF742D001010B540F66212B0F592
S1136FC01B6F28BF02460D49A2F6621291F89E304B
S1136FD023B1D1F8A000803090FBF3F3FD2431F904
S1136FE0120003EB430304FB003313F1800048BF9A
S1136FF003F27F10001221F8120010BD742D00104E
S113700040F66213B0F51B6F28BF0346064AA3F689
S1137010621332F9133013F1800048BF03F27F107A
S113702040F30720704700BF742D001070B5124E56
S113703096F90040002C05DDFFF7E2FF3478363C7A
S1137040044464B26FF07705A542B8BF25466FF0DB
S113705013039D42A8BF1D4605F1380141F0030109
S11370600620C9B202F0EDF814F1770FACBF00248A
S113707001247570B47070BD1A2E00100022094BE3
S1137080DA704FF0E0234FF40012C3F80021042219
S1137090054BC3F8AC20D3F8B42042F00402C3F883
S11370A0B42070471A2E001000800240094BD3F818
S11370B0B42022F00402C3F8B4200422C3F8AC20A4
S11370C04FF0E0234FF40012C3F880210022024B5A
S11370D0DA707047008002401A2E001008B5FFF7DE
S11370E0E5FF0022024B9A7088221A705A7008BD7C
S11370F01A2E00104FF0402302225A600022054B42
S11371001A605A609A609A81DA811A825A619A6185
S1137110704700BF202E00104FF0402301225A6018
S1137120704708B5FFF7E6FF4FF040230422DA600A
S113713040F634429A6103225A614FF0E02302225E
S1137140C3F8002108BD08B5FFF7D4FF4FF0E023D2
S11371500222C3F8802108BD164AD2F8C43043F095
S11371600053C2F8C4304FF0E023D3F8182442F49B
S11371707802C3F818244FF08062C3F8002100227B
S11371800D4BC3F81021C3F83021C3F85021C3F8C4
S11371907021C3F89021C3F8B021C3F8D021C3F8FB
S11371A0F021FF229A601A6101221A631A6BD20736
S11371B0FCD5704700C00F400040005070B501235B
S11371C0174A184C93601361174B1848194603F17A
S11371D0440641F8104B03F15405D8601865C3E91F
S11371E0125359609E605C64C2F80041C2F80411F5
S11371F0C2F80861C2F80C014DF20600C2F8100191
S11372000020C3F88800C3F88C00C3F89010C3F8BA
S11372109450D2F8103143F00103C2F8103170BD1C
S113722000400050080003403C2E001032900088BB
S113723030B50122174B18499A601A610022174D84
S1137240174801F198030A2A14BF1C46002401328E
S11372500B2A43E9045143E9024001F1040103F11B
S11372601003F0D10F4A0B4BD2F89810C3F8001159
S1137270D2F89C10C3F80411D2F8A010C3F8081176
S1137280D2F8A420C3F80C214DF20602C3F8102151
S113729030BD00BF004000504C2E001008000340D9
S11372A0041000883C2E00104FF080500A490B4B0C
S11372B0C1F898005A6A42F001025A625A6842F0D0
S11372C002025A60064AD2F8103143F00103C2F8B0
S11372D01031C1F89C00704700C009200000034031
S11372E0004000504FF08052094BC3F89820094BDE
S11372F05A6A22F001025A625A6822F002025A6063
S11373000022054BC3F8102101229A601A617047CC
S113731000C00920000003400040005030B50F4B6E
S11373200F481A460F4942F8200B03F1100403F1E9
S113733021055A60C3E90310C3E905539C60D96170
S1137340094BC3F80001C3F804214DF20602C3F847
S11373500841C3F80C11C3F8102130BD842F00106C
S1137360080003400100008000400050034B986176
S11373705A6942F001025A61704700BF0080004020
S1137380044B9A681E321A625A6942F040025A61EA
S1137390704700BF00800040044B9A6802F57A727F
S11373A05A625A6942F400725A6170470080004080
S11373B030B501440020034611F8014BDD000133D0
S11373C0AC409A4240EA0400F6D130BD10B5084AF8
S11373D0431E0530D47913F8011F214012F8014FE0
S11373E08C4203D18342F5D1012010BD0020FCE77B
S11373F05700001010B5054C4FF4E472002104F15D
S11374002400FCF7D9FE024B636210BD842F0010E8
S1137410D6BE898E70B5134A00231146D2F818518E
S1137420CDB14FF4927200260F4C02FB031502FB00
S1137430034431464FF482722846C4E9BC66C4F85A
S11374400463FCF7B9FE48F27F03C4F80C63A4F8A4
S11374500833284670BD0133042B02F59272DDD146
S1137460F7E700BF70310010842F001038B51B4CB3
S1137470606A01F003FE054647F6FE710D2001F037
S1137480E0FE42F62231122001F0DBFE41F24B21F4
S1137490142001F0D6FE44F2E141202001F0D1FE97
S11374A02C20A9B201F0CDFE2D20290C01F0C9FE3B
S11374B0B4F87C160220013989B201F0C2FE4021E1
S11374C0032001F0BEFE01F047FF4306FBD5612017
S11374D001F049FFBDE83840FFF752BF842F001088
S11374E070B5642001F03FFF254B5A6A22F0010277
S11374F05A62DD6815F004052CD1224C4FF48272D7
S1137500D4F8806629463046C6E94155FCF754FE56
S113751048F27F03C6F82051A6F81C31FFF7FEFE9F
S1137520FFF7C2FE626A184B9A4215D140F67A12EE
S1137530164B1B889BB2934220D0B3F51B6F0CBF34
S113754027202520FFF739FBA4F87C06BDE870400E
S1137550FFF78CBF9A68CCE794F8300094F8313088
S113756004F1440118442523B0FBF3F203FB120099
S1137570C0B284F83000FFF7FCFBE3E72620E1E724
S113758000000340842F0010D6BE898E70000010C6
S113759010B52D4BD3F8881602290BD1D3F88406E5
S11375A00122C3F80401C3F80821284A9268C3F8E9
S11375B00C2116E00129D3F808212AD15AB3D3F8B3
S11375C004215C6BD3F8840622441E32121A3B2A2F
S11375D0E6D9D3F80421586B0244C3F804210029E6
S11375E0E3D10022B3F81011D3F80C010131A3F850
S11375F010111649C3F888268968C3F88C26091A1D
S1137600986B814210D9FFF7F5FEBDE81040FFF7F3
S113761067BF002ADDD1D3F88426C3F804210B4ABE
S11376209268C3F80C21DAE70949086808B10A60CE
S1137630E9E7D3F804015B6BBDE810401844A0F6F9
S1137640B830FFF793BE00BF842F001000800040C5
S113765058070010F8B56B4B9D686B4B1A68D4073C
S113766048D55A68D0073FD5012206209A6001F018
S1137670DFFD664C40F30720D4F88036D3F8202190
S11376800244C3F8202193F91C21824293F91D215D
S1137690C8BF83F81C018242D3F80821B8BF83F81D
S11376A01D0102F00101214491F820109954013286
S11376B0012AC3F808211ED1B4F87C26B4F87C064C
S11376C092B2C3F81021626AA5F5C875C3F80C51CB
S11376D0C3F8142180B2FFF757FA242804D8494A82
S11376E0536923F001035361474BDA68D20744BF5F
S11376F001221A61F8BD022A2FD1B3F810015E7875
S1137700FFF742FA7F270021DFF804C11CF800309C
S113771008460833B3FBF7F2C2EBC2129B1AC0F15E
S113772007050CEB030292F8282046FA05F505F04C
S1137730010501336A40B3FBF7F582400130C5EB24
S1137740C5150A430828A3EB0503D1B2E7D1D4F841
S113775080360531C3F80411C6E7C5D9D3F804311E
S11377609342C1D8612001F0FEFD0022264BC3F8EC
S1137770102101229A60274B5A6A22F001025A62B0
S1137780DA6851072CD44FF0E0234FF08062D4F82C
S11377908016C3F88021204800F000FBB4F87C0672
S11377A080B2FFF7F1F9242812D8D4F888360133CF
S11377B0012BC4F8883615D1D4F88036D3F80C31AF
S11377C0C4F884360F4B986800F6B830FFF7CEFD46
S11377D0FFF720FEC4F8800688B9FFF7DDFD83E7D4
S11377E09A68CDE7022BF3D1642001F0BCFDFFF7CA
S11377F011FEC4F88006BDE8F840FFF7C9BEFFF7E4
S1137800BFFD71E70080004000400050842F00104D
S1137810ABAB0000000003401436001038B5604BD9
S11378201A68D50757D501215E4C1960D4F8143174
S1137830D4F88C567BB3B4F81021B4F820319A42B2
S113784029D1236CD4F8040118444DB943B1636BB6
S1137850A0F6B8301844FFF789FDC4F88C1638BD7B
S113786001230022C4F88C3600F5A540D4F8183161
S113787050306363184494F83C30D4F81C11184415
S1137880C4F80821A163C4F81421FFF76FFDBDE813
S11378903840FFF725BED4F8243173B1B4F8102171
S11378A0B4F828319A4208D13F49C022A1F1E80036
S11378B0FCF70CFC0023C4F82431002D4DD1012326
S11378C0C4F88C36364B986800F5BD400830FFF795
S11378D04DFDFFF705FE324B1A6894070CD50221C3
S11378E019605A6922F008025A614FF480722F4BD2
S11378F0DA631022DA63D963294C236858071CD54C
S11379000423236001F028FD410729D5FFF706FD74
S1137910FFF7CAFC4FF0E0234FF080626220C3F807
S1137920002101F020FD8022204B9A654FF48072E3
S11379309A65636923F040036361194B1A6812075F
S11379408DD508221A60FFF765FD164BC3F8800633
S113795048B9BDE83840FFF71FBDFFF719FEBAE785
S1137960FFF70EFDE9E701F0F7FC430713D5FFF736
S1137970D5FCFFF799FC4FF0E0234FF080626220C2
S1137980C3F8002101F0EFFC8022084B9A654FF404
S113799080729A6563E7BDE83840FFF7F1BC00BF29
S11379A000800040842F0010B030001000C0092077
S11379B02DE9F04F85B04FF080734FF0E02601259C
S11379C0BB4CC6F88031FFF7BEFB04F5D260C4F8A7
S11379D00453C4F82854C4F84C55C4F8705600F045
S11379E0D9F90222B34BB44F5A600422DA605D60C5
S11379F0C6F80021FFF70EFDB04BC4F880061B88C3
S1137A00DFF8BCB2A4F87C36AE4B6362FFF720FA11
S1137A1001F092FBFFF782FCFFF746FCFFF726FD1F
S1137A2000233B60A84B1B78092B13D00222A14BE7
S1137A3004215A604FF0E023C3F880111021A34BB6
S1137A40D9634FF48071D963DA6305B0BDE8F04FB0
S1137A50FFF767BB00239E4803A9039300F0ACF92A
S1137A60002800F0D7800398D0F81021D0F8041132
S1137A70FFF724F9DBF84430002B40F0B4801022E7
S1137A80924B039E9A638B4A936803F5C333A033E6
S1137A90D361536943F008035361FFF7E9F90546DD
S1137AA0002840F0D280039DB5F81001FFF76CF870
S1137AB02428297840F2148101F00F01052940F0AF
S1137AC0A580DBF83430002B00F0A080D5F8043119
S1137AD0272B40F09B803B680BB100233B600422C2
S1137AE00E212846FFF764FC032212216062284617
S1137AF0FFF75EFCA06201F0C1FA01221521E062E9
S1137B002846FFF755FC0222162184F83C008146E2
S1137B102846FFF74DFC1821206482462846FFF7CB
S1137B2047FC1C21064660632846FFF741FC0122FE
S1137B30A063804623212846FFF73AFC40F67A43A7
S1137B40B21F00F01F009A4284F8310000F2AC80AA
S1137B5043F2D40101FB06F301FB0AF2934263638F
S1137B602264C0F0A18043F2D3025FFA89F901FBD9
S1137B7009F9914540F39880564AA3F54353143BC1
S1137B80934228BF1346994500F28E8002FB08F207
S1137B90514BA2F57428A8F510789845A26300F219
S1137BA083804E4905F11E00FFF7B6F8D4F8003182
S1137BB0002B79D03F4A536923F0400353610023DB
S1137BC05022206CC4F88836C4F88C3600F51A505C
S1137BD0D5F80C312C301844D5F8043102FB0300DD
S1137BE0FFF7C4FB12E0039DB5F81001FEF7CCFFCC
S1137BF024287FF644AF01232A7802F00F02934031
S1137C0013F0550F0AD113F02A0F11D10122039B4F
S1137C10C3F818210020FFF787F903E7D5F80431EA
S1137C20072BF3D9A81CFFF7D1FB0028EED026E7D9
S1137C30D5F804310D2BE9D9A81CFFF7C7FB0028A0
S1137C407FF41DAF05F10800EDE74FF000080123B4
S1137C5080F803800370D6F80C3106F58A7143600E
S1137C6096F810310E30623B00F80C3CD6F8042133
S1137C70D6F82031B3FBF2F300F8043C96F81C313B
S1137C80042200F8053C96F81D3100F8038C00F836
S1137C90063CFCF71BFA2E22314605F11200FCF7D4
S1137CA015FA85F80180FEE6FFF7A4FBAEE700BFF6
S1137CB0842F00100080004058070010700000104E
S1137CC020000010D6BE898E1107001000C00920C4
S1137CD014360010A0860100C08D0313C82F0010B5
S1137CE001F00301032991D16B78002B8ED0AA787F
S1137CF08AB1012A8AD1082B88D11946C4F82421D3
S1137D0028460222FFF754FB2049A4F82801E81C66
S1137D10FFF702F87AE70C2B7FF478AF01222846AC
S1137D200193FFF745FB0222064604212846FFF78C
S1137D303FFB062182462846FFF73AFB0A2181468B
S1137D402846FFF735FB019980462846FFF730FBAC
S1137D5006EB460306EB830306EB8306964043F2E9
S1137D60D40202FB0AF32364094B02FB09F203FB6E
S1137D7008F3C4F81C310123A4F8200184F83C6002
S1137D80C4F81821C4F8143140E700BFB030001023
S1137D90A08601000023C0E90A337047C36A826ADF
S1137DA001330A2B28BF00239A421DBF40F8231039
S1137DB0C362012000207047D0E90A32934209D0FF
S1137DC001330A2B28BF002350F823200A60836262
S1137DD001207047002070472DE9F04F99B000AFA3
S1137DE000237B6015233B863A23BB60944B0546F6
S1137DF01B6807F11C0107F1080098473C7FE8461F
S1137E00002C40F018813B6A3A8C190E1B0C87F841
S1137E1033307B6A87F83210190E1B0C87F8373021
S1137E20BB6A87F83610190E1B0C87F83B30FB6AC7
S1137E3087F83A10190E1B0C87F83F304FF6FF7382
S1137E4052BABA86BA8C122052BA3A873A8D87F857
S1137E503E1052BABA87BA8D42F6223152BAA7F806
S1137E604020A7F8443001F0ECF941F24B311420E2
S1137E7001F0E7F940F6F151202001F0E2F92988F8
S1137E80022089B201F0DDF94FF6AE112D2001F088
S1137E90D8F941F284512C2001F0D3F908210520AE
S1137EA001F0CFF92921032001F0CBF901F054FAB4
S1137EB04306FBD5612001F056FA01F04DFA46075E
S1137EC0FBD54FF480725F4B9A6380229A654FF022
S1137ED0000944F008010520C9B201F0B2F987F89D
S1137EE0424087F843900E2001F0A2F900F01F00F1
S1137EF00F28F8D107F13006B3464FF0000A70207E
S1137F001BF8011B0AF1010A01F0A9F9BAF1160FD5
S1137F10F5D1632009F1010901F025FAB9F1100F37
S1137F20DFD10134082CD2D10E2001F081F900F008
S1137F301F000F28F8D14FF48072424B6420DA639B
S1137F4001F011FA01F008FA4407FBD42988022051
S1137F50013989B201F075F901F0FEF94006FBD54B
S1137F60612001F000FA01F0F7F94107FBD5102375
S1137F70344CA3630E2001F05BF900F01F000F28BE
S1137F80F8D1622001F0EFF901F0E6F9C206FBD561
S1137F90022307F14805AA464FF00009A3637020A5
S1137FA001F054F909F10109B9F1160F0AF8010BAE
S1137FB0F5D101F0D1F9030702D40223E363D9E731
S1137FC00E2001F035F900F01F000F28F8D16420CD
S1137FD001F0C9F901F0C0F910F00400FAD18022CF
S1137FE0184BDA651022DA630123174A87F8313017
S1137FF01370022397F85A10517097F85B10917020
S113800097F85C10D17097F85D10117115F8014B59
S113801016F8011B8C4218BF7B6003F10103DBB22D
S113802018BF0120142BF1D108B17B681370022210
S1138030044BDA63C5466437BD46BDE8F08F00BF24
S1138040F8AC000000C00920443600102DE9F047C8
S113805086B002270646564C42F62231122001F021
S1138060F0F841F24B31142001F0EBF83188022092
S1138070013989B201F0E5F84FF6AE112D2001F077
S1138080E0F841F284512C2001F0DBF808210520AE
S113809001F0D7F82921032001F0D3F801F05CF9AD
S11380A04106FBD5612001F05EF901F055F9420764
S11380B0FBD51023A3634FF48073E3638023E7634A
S11380C0A3650E2001F0B4F800F01F000F28F8D1CA
S11380D06220E76301F047F901F03EF9C306FBD5DE
S11380E0E8460025A763702001F0B0F80135162D8D
S11380F008F8010BF7D101F02FF90507E1D510239A
S1138100E7636420E36301F02EF901F025F94007E9
S1138110FBD401F021F94106FBD53188022089B254
S113812001F08FF801F018F94206FBD5612001F047
S11381301AF94FF48073A36340F215130025ADF8C8
S113814000304FF0000845F008010520C9B201F0E5
S113815078F88DF814508DF815800E2001F068F829
S113816000F01F000F28F8D1EA464FF000097020F4
S11381701AF8011B09F1010901F071F8B9F1160FA0
S1138180F5D1632008F1010801F0EDF8B8F1100F02
S1138190E1D10135082DD4D14FF480736420E36319
S11381A001F0E1F801F0D8F84307FBD454E700BF2D
S11381B000C0092038B503780C4683B30378012B3B
S11381C02CD1402542F62231122001F03AF843F234
S11381D04B31142001F035F840F6F151202001F024
S11381E030F82188022089B201F02BF829460320B7
S11381F001F027F801F0B0F84206FBD5612001F048
S1138200B2F801F0A9F84307FBD54FF48073054C8D
S11382106320A36301F0A7F88023A36538BD292553
S1138220D0E700BF00C009204FF08052044BC3F8D0
S11382309820044A536823F002035360704700BF38
S113824000C009200000034010B50023064C074A73
S11382502178994200DC10BDD1684907FCD59168AA
S1138260C1540133F4E700BF3C0600100000034092
S113827010B5084B40F635441A684FF040239B680C
S1138280C2F3130204FB0233836042F210735943B6
S1138290C16010BD202E00100C4B40F635411A6809
S11382A04FF040239B68C2F3130201FB0233816841
S11382B003F1434202F5A002994288BF1346C06805
S11382C05B1A834234BF002001207047202E001027
S11382D070470000002340F668124360024B1A8086
S11382E001230370704700BF6C000010012303706A
S11382F07047000070B58EB034220446002101A8F6
S1138300FBF75AFF1C4B40F635411A684FF04023E7
S11383109B68C2F3130201FB023320460D93FFF75F
S1138320BBFF28B104212046FFF7A2FF03232370DB
S113833001F012F8C30619D51026104D01A8AE633A
S1138340FFF782FF01460D9A0620FCF78BFD0621FC
S11383502046EE63FFF78CFF03232370642001F0B3
S113836002F8FFF761FF0123236102E02378022B67
S1138370F4D10EB070BD00BF202E001000C0092043
S113838038B547F6FF7104460D2000F05AFF42F657
S11383902231122000F055FF41F24B31142000F03D
S11383A050FF4FF49C61202000F04BFF1D4B022036
S11383B019881D4D013989B200F043FF4021032083
S11383C000F03FFF0321212000F03BFF2D20E9882E
S11383D000F037FF2C20A98800F033FF00F0BCFF29
S11383E04206FBD54FF08051104A1148C2F898104C
S11383F0436843F0020343606120C2F89C1000F01C
S1138400B2FF00F0A9FF4307FBD50E2000F010FFD8
S113841000F01F000F28F8D1622000F0A4FF02230F
S1138420237038BD6C0000103C06001000C0092009
S11384300000034038B547F6FF7104460D2000F0F4
S113844000FF42F62231122000F0FBFE43F24B31D2
S1138450142000F0F6FE4FF49861202000F0F1FEA5
S11384601A4B0220198889B200F0EBFE2621032062
S113847000F0E7FE0321212000F0E3FE0F21052098
S113848000F0DFFE00F068FF4206FBD5612000F03B
S11384906AFF00F061FF4307FBD50E2000F0C8FE21
S11384A000F01F000F28F8D18023094D6320AB652D
S11384B000F059FF4FF48073AB6305232370A36965
S11384C0A36044F62063E36038BD00BF6C00001075
S11384D000C0092010B50446FFF7DEFEA8B16368AA
S11384E0072101335A4202F0030203F0030358BF89
S11384F05342064A636032F81320054B20461A8023
S1138500FFF7B6FE01232361237010BD54AC0000B5
S11385106C00001010B50446FFF7BEFE30B1012315
S113852023702361A369A360014BE36010BD00BF06
S1138530B0AD010010B50446FFF7AEFEF0B1642003
S113854000F011FF80220E4BDA654FF48072DA637B
S1138550636801335A4202F0030203F0030358BF75
S11385605342084A636032F81320074B1A800323EE
S11385702370A369A3604EF66023E36010BD00BFBF
S113858000C0092054AC00006C00001010B5044673
S113859000F0E2FEC3060FD50423237001236361B8
S11385A0124B40F635411A684FF040239B68C2F3E2
S11385B0130201FB0233A361236993B12046FFF741
S11385C06BFE70B10423237000230B2120466361EA
S11385D0FFF74EFE642000F0C6FEBDE81040FFF732
S11385E023BE2378022BF5D110BD00BF202E00102E
S11385F030B58FB03422002101A8FBF7DDFD214BFB
S113860040F635411A684FF040239B68C2F31302C9
S113861001FB02330D9300F09FFEC0062DD51025FB
S1138620194C01A8A563FFF70FFE01460D9A062019
S1138630FCF718FCE5636120FFF7F6FD00F093FEFC
S113864000F08AFE4107FBD50E2000F0F1FD00F09A
S11386501F000F28F8D10D4BDA6852070FD44FF0E2
S113866080500949C1F898005A6842F002025A60E1
S1138670C1F89C00622000F076FE0FB030BD9A680D
S1138680EAE700BF202E001000C0092000000340CC
S113869030B589B005461C22002101A8FBF78CFDEA
S11386A0FEF73AFD022D144C15D84FF0E0234FF09D
S11386B080721248C3F8002100EB8500856800F041
S11386C03BFD23780D2B0AD19DF8043001A855F801
S11386D023309847F5E70023237009B030BD6420A8
S11386E000F041FEFFF7A0FD4FF0E0234FF0807251
S11386F0C3F88021F1E700BF1107001054AC00005B
S113870070B5012803D0022818D0002015E0531EAC
S1138710032BFAD800200C4B9E685C6886424FEA13
S113872004245C60C8BF0D5C00F10100C4BF2C438D
S11387305C600428F1D19A60012070BD012AE4D163
S11387400A78014B1A70F7E73C060010254AD2F864
S1138750C43043F01003C2F8C4308322224BDA60E1
S11387600B221A6000225A60D3229A62DA6822F03D
S11387708002DA60002832D0C0221A6109229A608D
S11387801A4B1A6822F0404242F080421A601A6C76
S113879022F040421A645A6822F0030242F00102B5
S11387A05A605A6C22F003025A64B8B15A6822F033
S11387B00C0242F004025A605A6C22F00C0242F09D
S11387C008025A645A6822F4405242F480525A60B1
S11387D05A6C22F4405242F400525A6470471861B1
S11387E0CCE700BF00C00F400000014000C00240C1
S11387F00FB473B5174E35683DBB3446012344F8B6
S1138800043B069A07ABFF212046019300F05AFA75
S1138810204686F8035101F02BFC0F4B0F4AC3F896
S1138820E041C3F8E4214CF68022C0F30B0040F091
S11388300440C3F8E851C3F8EC01C3F8F021D3F8BD
S1138840F02142F00102C3F8F02102B0BDE870400B
S113885004B070474C360010004000500000014046
S11388602DE9F74F0125D2E903A60746884691462C
S113887000242A4623463846414601F053FA50451F
S113888071F1000109D24FF0000A55EA04030AD13C
S11388900023337003B0BDE8F08F0AFB04F3A5FB9B
S11388A00A541C44E5E7384641462A46234601F06B
S11388B039FA1746D9F80C208346984628460023EF
S11388C02146019201F02EFABAF1000F09D1D345E5
S11388D007DC019A954274F1000412D305460C4654
S11388E0D3E7BBF1090F0CDD99F8003013F0040F46
S11388F00CBF572337235B4406F8013B0AF1010AF6
S1138900ECE73023F7E7F0B50123D1E90342B0FBEC
S1138910F3F5A54203D200251BB91370F0BD6343E0
S1138920F5E7B0FBF3F4CE6803FB1400B3FBF6F7F2
S11389302DB9AC4203DC9E420ED83B46ECE7092C31
S11389400ADD0B7813F0040F0CBF5723372323449D
S113895002F8013B0135F0E73023F8E72DE9F04157
S113896006460F46154613695468013B13F8012F58
S11389700AB1002C45DC2B7A03B1013C2B78990712
S113898003D5EA68102A3ED1023C13F0090F08D13E
S1138990A046B8F1000F3BDC631E002CB4BF1C469C
S11389A01C1B297A09B13046B8472B789A070DD594
S11389B0EB68102B32D130213046B8472B7813F0B6
S11389C0040F0CBF782158213046B8472B78DB07B9
S11389D008D5A046B8F1000F24DC631E002CB4BFF8
S11389E01C461C1B2B6903F1FF3818F8011FF9B949
S11389F02B7803F00903082B01D1002C1BDCBDE804
S1138A00F081013CB2E7082A08BF04F1FF34BCE757
S1138A1020213046B84708F1FF38BAE7082BD5D1F2
S1138A203021D1E730213046B84708F1FF38D1E78B
S1138A303046B847D9E720213046013CB847DCE747
S1138A408368026893423CBF4268D154836801330F
S1138A50836070472DE9F0478CB04FF0000906465B
S1138A600F4615461C460DF11808CDF8148095F8EC
S1138A7000A0BAF1000F66D0BAF1250F05F1010587
S1138A8009D0BAF10A0F02D10D213046B847514638
S1138A903046B847EBE79DF80430CDF8089023F052
S1138AA00B038DF804308DF80C9015F8011B09B9EF
S1138AB000233DE02D290AD030290FD0232912D0DC
S1138AC0A1F13003092B42D800220A201CE09DF8B2
S1138AD0043043F008038DF80430E6E79DF80430D1
S1138AE043F00103F7E79DF8043043F00203F2E793
S1138AF0A1F14103052B29D8A1F137030A2B11D188
S1138B0000FB023215F8011BA1F130035FFA83FC6C
S1138B10BCF1090FF4D9A1F16103052BE8D8A1F147
S1138B205703EBE702927A2920D115F8011B0123A0
S1138B3078299CD8622924D82529A9D0582900F05D
S1138B409280002993D10CB0BDE8F08702922E29BF
S1138B50E9D19DF8043043F001038DF8043015F891
S1138B60011BA1F13003092BF9D9DCE76C299FD152
S1138B7029786C2901D00135D9E7697802230235B7
S1138B80D6E7A1F16302152A3FF671AF01A050F8B0
S1138B9022F000BFA98C0000038C00006F8A000043
S1138BA06F8A00006F8A00006F8A0000038C000047
S1138BB06F8A00006F8A00006F8A00006F8A0000CD
S1138BC06F8A0000978C0000598C00006F8A0000A7
S1138BD06F8A0000AF8C00006F8A0000ED8B0000EC
S1138BE06F8A00006F8A0000678C00000A220492DA
S1138BF0022B45D1073424F0070401AAF4E802014A
S1138C0013E00A22022B049212D1E31D23F007037E
S1138C101C46596854F8080B002905DA2D234042F4
S1138C2061EB41018DF80C3001AAFFF719FE0DE04C
S1138C30206804F1040A0028BCBF2D23404201A986
S1138C40B8BF8DF80C305446FFF75DFE01AA3946D3
S1138C503046FFF783FE0AE79DF8043043F0020331
S1138C608DF80430002310220492A1F158025142DD
S1138C7051419DF8042061F382028DF80420B7E786
S1138C80012B54F8040B01A902D1FFF73CFEDDE7E8
S1138C90FFF739FEDAE7082301A954F8040B04931B
S1138CA0FFF731FE0A46D2E714F8041BF0E654F845
S1138CB0043B3946304601AA0593FFF74FFECDF831
S1138CC01480D4E61FB5002489B1013902900191C2
S1138CD001A808490394FFF7BDFEDDE901320399B9
S1138CE0994234BF5454D454039804B010BD084678
S1138CF0FBE700BF418A000082B00023054A0193CC
S1138D00019B934201DD02B07047019B0133019343
S1138D10F6E700BFBFC62D00F8B5002402270C49B2
S1138D2010264FF480758F638E638D63FFF7E4FF25
S1138D300134CF63CE63CD63FFF7DEFFA042EFD1F2
S1138D40FFF7DAFFFFF7D8FFBDE8F840FFF7D4BF1D
S1138D5000C0092038B54FF0E023D3F82C4D04F0BF
S1138D60020504F080440220FFF7D6FF4DB1032032
S1138D70FFF7D2FFFFF7C0FFFFF7BEFFFFF7BCFF0F
S1138D80F1E7002CF6D00420F2E7000030B587B0FC
S1138D90114D01AC0FCD0FC42B6823600F4B93F81A
S1138DA02840E4B20320FFF7B7FF002001AB1A68A4
S1138DB0013044FA02F2D20708D5FFF7ADFFFFF7FE
S1138DC09BFFFFF799FFFFF797FFEBE7052803F1F8
S1138DD00403ECD1F3E700BFB4AC000000ED00E005
S1138DE030B587B06C46124D0FCD0FC495E8030023
S1138DF084E803000F4B93F82940E4B20420FFF702
S1138E008BFF6B4600201A68013044FA02F2D20745
S1138E1008D5FFF781FFFFF76FFFFFF76DFFFFF73F
S1138E206BFFEBE7062803F10403ECD1F3E700BF83
S1138E30C8AC000000ED00E030B587B06C46114DC1
S1138E400FCD0FC495E803000F4B84E803005C8D3D
S1138E50A4B20520FFF760FF6B4600201A680130BA
S1138E6044FA02F2D20708D5FFF756FFFFF744FF92
S1138E70FFF742FFFFF740FFEBE7062803F1040387
S1138E80ECD1F3E7E0AC000000ED00E070B54FF08A
S1138E90E0224FF080732A49C2F80031D1F8C4307F
S1138EA0284C43F48003C1F8C430022363604CF2BD
S1138EB04F33E360012363600823C2F800314FF4A9
S1138EC09665A66801F002F990FBF5F303FB150023
S1138ED006F5C8763044A061A66801F0F7F890FB67
S1138EE0F5F303FB150006F5C8763044E061A66887
S1138EF001F0ECF890FBF5F303FB150006F5C876DA
S1138F00304420626369104A43F049036361137873
S1138F10112B12D002234FF0E0226360082308498A
S1138F20C2F88031D1F8C43023F48003C1F8C430CE
S1138F304FF08073C2F8803170BD30BFE7E700BFE7
S1138F4000C00F40000009401107001038B52C4B39
S1138F501A68D00718D501221A602A4B284D5A6B7B
S1138F6012F0020F4FF0020214BFDA639A63AC6886
S1138F7001F0ACF84FF4966390FBF3F202FB13009C
S1138F8004F5C8742044A8611D4B1A68910718D5CC
S1138F9002221A601B4B1A4D5A6B12F0100F4FF03D
S1138FA0100214BFDA639A63AC6801F08FF84FF4CF
S1138FB0966390FBF3F202FB130004F5C87420449B
S1138FC0E8610F4B1A68520718D504221A600D4B3A
S1138FD00B4D5A6B12F4807F4FF4807214BFDA6326
S1138FE09A63AC6801F072F84FF4966390FBF3F265
S1138FF002FB130004F5C8742044286238BD00BF86
S11390000000094000C0092000F0BCBC08B50E4BAC
S11390100E4A0F498B420ED300210E4B0E4A934247
S11390200ED3FBF719F94FF0E0230C4AC3F8082DCF
S1139030FDF7F6FBFEE752F8040B43F8040BE9E7EF
S113904043F8041BEBE700BF2000001030AD000024
S1139050EC060010F8060010E9370010004000008C
S1139060FEE700000A23044A13601368013B1360FF
S1139070002BFAD1704700BF5037001090FAA0F0CF
S113908070470000C30803EB900303EB901303EB5A
S1139090D013064A03EB902303EBD02353605368A9
S11390A0013B5360002BFAD1704700BF50370010CA
S11390B0014B5843FFF7E6BF40420F0000230F4A1D
S11390C00F49136053609360D3601361D36153629B
S11390D093620B600B620B640B66C1F880301364FF
S11390E053649364D3641365D36553664B614B63D4
S11390F04B654B67C1F89430704700BF00C0024015
S113910000C0092008B5FFF7D9FF00224CF2127104
S1139110084B1A60196240F2B11119644FF04051C2
S11391201A66C3F880105A615A635A655A67C3F8BD
S1139130942008BD00C00920114B1A6822F4404253
S113914042F400421A601A6822F4405242F4005277
S11391501A601A6822F4403242F400321A601A6823
S113916022F4402242F400221A604FF08052054B50
S1139170C3F89820C722044B1A600C225A60704727
S113918000C0024000C0092000000340094B0A4906
S11391905A6822F470125A600A6822F0C0620A60A7
S11391A05A6C42F420125A645A6C22F4A0125A6483
S11391B0704700BF00C0024000C0092070B5441EC3
S11391C0034620200C4A0125D0651026084605FADE
S11391D004F413B92023936570BD204214BF956530
S11391E0D5659665516D013BC1F34001DBB241EA9F
S11391F04000D665EDE700BF00C0092008B5FFF7C1
S1139200C5FF4FF40073084932208B63FFF73AFF20
S113921020238B654FF4804318208B630349BDE8FA
S11392200840FFF7CBBF00BF00C00920FF7F0D003F
S113923008B540F0800109041820FFF7BFFF80B291
S113924008BD41EA00411820FFF7B8BF08B5010284
S113925041F400411020FFF7B1FFC0B208BD41EA5C
S113926000211020FFF7AABF70B520231C4A7024E8
S1139270D36501260823102514F0800F03F1FF3372
S113928014BF9665D66513F0FF0395654FEA440451
S1139290D565F1D101251026114C084481420DD128
S11392A0082310220E49013B13F0FF038A65CA65A7
S11392B0F9D1FFF7D7FE20238B6570BD082311F881
S11392C0012B12F0800F03F1FF3314BFA565E56590
S11392D0520013F0FF03A665D2B2E665F1D1DDE7D3
S11392E000C00920F8B520231A4AF024D3650126CA
S11392F008231025270603F1FF334CBF9665D66576
S113930013F0FF0395654FEA4404D565F2D1114E7D
S11393100844814205D1FFF7A5FE20220D4B9A6532
S1139320F8BD002408251027FFF79CFEB765736D70
S1139330640013F0020FE4B205F1FF3518BF44F0E6
S11393400104FFF78FFE15F0FF05F765ECD101F876
S1139350014BDEE700C0092008B500210820FFF713
S11393602DFFC0B208BD08B501460820FFF726FF4F
S1139370C0B208BD08B500211820FFF71FFF002068
S1139380FFF756FF0028FAD14FF400411820FFF7E9
S113939015FF0020FFF74CFFB0F5004FF9D108BDD1
S11393A008B544F23A02514B1A600022C3F80C216A
S11393B0D3F8802022F00202C3F88020AA22C3F846
S11393C08C205522C3F88C20D3F888209201FBD43A
S11393D0D3F8802022F00102C3F88020AA22C3F827
S11393E08C205522C3F88C20404AD2F8883013F0E0
S11393F08073FAD1C2F80431FFF7BCFF18203C494E
S1139400FFF7DCFE6020FFF7AEFFFFF7A5FF400685
S1139410FBD52022354BC3F8A021D3F8A021510657
S1139420FBD52822C3F8A8214FF40052C3F8AC217D
S11394300122AA205521C3F80C212E4AC3F8842006
S1139440C3F88C00C3F88C10D3F8802042F00102DA
S1139450C3F88020C3F88C00C3F88C10234BD3F8D6
S11394608820D201FBD50322C3F80421D3F880203D
S113947042F00202C3F88020AA22C3F88C205522AD
S1139480C3F88C20194BD3F888209001FBD52222F5
S1139490AA205521C3F8A420C3F8AC00C3F8AC102B
S11394A0D3F8A02042F00102C3F8A020C3F8AC0016
S11394B0C3F8AC100D4BD3F8A820D105FBD5D3F8D5
S11394C0A8205205FBD5D3F8A02042F00202C3F82D
S11394D0A020AA22C3F8AC205522C3F8AC20034A2A
S11394E0D2F8A8309B05FBD508BD00BF00C00F40D3
S11394F0701508001800010008B5FFF703FEFFF718
S11395007DFEBDE80840FFF74BBF000008B5FFF73C
S1139510D5FD0222084B0948DA634FF080431A68EC
S113952042F003021A60AA229A6055229A60BDE8AA
S11395300840FFF7A7BD00BF00C0092040420F004C
S113954030B58BB0362304460D4600936846084B6D
S113955005A99847059B2370069B1A0A6370A2709D
S11395601A0C1B0E23710523E2702B600BB030BD67
S1139570F11FFF1F30B58BB03A2304460D4600930C
S11395806846144B05A99847059B2370069B1A0A45
S11395906370A2701A0C1B0E2371079BE2701A0AE7
S11395A06371A2711A0C1B0E2372089BE2711A0AD2
S11395B06372A2721A0C1B0E2373099BE2721A0ABD
S11395C06373A2731A0C1B0E23741123E2732B60B2
S11395D00BB030BDF11FFF1F00B58BB039236846B7
S11395E0009305A9014B98470BB000BDF11FFF1F65
S11395F038B5084C802025686168402DA8BF4025F7
S11396002A4600F059F963682B44636023685B1BA6
S1139610236038BD5837001037B5114C257AC5F38F
S11396204115022D0DD1002304F11002019301A96B
S1139630231D04F1080000F055FA10B1019803B09D
S113964030BD04EB850463693BB1064A02F10C01A9
S1139650101D03B0BDE8304018471846EFE700BFBF
S1139660583700105C37001010B5002847D111F0AE
S11396700401244C23D00822A11800F045F9237AD0
S1139680C3F3411204EB8202526A6260E2892260EF
S113969022610AB1DB0934D0FFF7BEFF28B9BDE867
S11396A010400121802000F0FBB8E28923699A422E
S11396B0D4BF22602360BDE81040FFF799BF226841
S11396C0002A17DD616800F01FF90028E7DB6368F2
S11396D00344636023681B1A236093B9237AC3F39A
S11396E0411304EB83035B6A6360FFF795FF002873
S11396F0E1D1D4E70A46BDE8104000F005B980285E
S1139700D9D010BD58370010024B03EB80004161E3
S113971042627047583700107047000008B500F0E7
S113972091F90D4800F086F800200C4900F066F825
S113973080200A4900F062F84021002000F03EF841
S11397404021802000F03AF80020054A0549FFF73F
S1139750DBFF012008BD00BF1997000069960000D7
S11397608C370010D19B0000044BD3F8002230EA60
S11397700202FAD1C3F80802704700BF00C00050CB
S11397803022054B000440F4A060C3F80822C3F85B
S113979010021020FFF7E8BF00C0005008B5FFF723
S11397A0EFFF0904044B41F48071C3F81012102038
S11397B0BDE80840FFF7D8BF00C0005010B5012332
S11397C00D4A440004F01E0444EAD014D2F84402C2
S11397D0A3400343C2F844324FF48070C2F84842B5
S11397E0C2F84C12FFF7C0FF002144F04000BDE86E
S11397F01040FFF7D3BF00BF00C000500B4A430026
S113980003F01E0342F8131043EAD0100123084A60
S11398108340D2F834120B43C2F83432D2F8043203
S113982043F00403C2F80432704700BF94370010B9
S113983000C00050044B054A1864D2F8043243F0C7
S11398400803C2F8043270479437001000C0005077
S113985040F08001D020FFF7A1BF011E18BF0121F5
S1139860FE20FFF79BBF0146F320FFF797BF0000E0
S113987010B5430003F01E0343EAD0110846074C19
S1139880090441F40071FFF77BFF2020C4F8101293
S1139890FFF76AFFD4F81402C0B210BD00C0005034
S11398A0430003F01E0343EAD010003918BF01211E
S11398B040F04000FFF772BF38B50346154640003C
S11398C000F01E0040EAD3109B000E4C03F03C0352
S11398D043F00203C4F82832C4F82422D4F828320E
S11398E013F0020308D1C4F82832FFF749FFFA2025
S11398F0FFF746FF284638BD51F8043BC4F81C3234
S1139900ECE700BF00C0005070B58300194D03F0B0
S11399103C0343F00103C5F82832D5F8204226055C
S1139920FBD5630522D50025430003F01E0343EA5B
S1139930D010C4F309032C460E4E9C420AD10022D7
S11399400C4BC3F82822FFF71BFFF220FFF718FF88
S1139950204670BD14F0030F08BFD6F8185211B199
S1139960944238BF0D552D0A0134E6E74FF0FF301D
S1139970EFE700BF00C00050011E18BF0121D8202E
S1139980FFF70CBFF8B52B49D1F80042E00712D518
S11399900123C1F80832284B5D6C65B1F520FFF74F
S11399A0EFFE264B2020C1F81032FFF7DDFED1F880
S11399B01402C0B2A847220717D508231D49FE2068
S11399C0C1F80832FFF7DCFE1D4B2020C1F810322D
S11399D0FFF7CAFED1F8140210F01A0F05D0164B87
S11399E01B6C13B100F015009847630720D50423BE
S11399F0002401260F4D104FC5F80832D5F8302247
S1139A0006FA04F31A4210D02020C5F83832FFF7C2
S1139A10ABFE601057F82030D5F814122BB140EA91
S1139A20C41001F01F01C0B298470134202CE5D1C5
S1139A30F8BD00BF00C00050943700100002F500CC
S1139A400002FE0008B5244B1A6922F4402242F4B5
S1139A5080221A61DA6822F0300242F01002DA60E1
S1139A60DA6822F0405242F00052DA605A6822F07A
S1139A70406242F080625A605A6822F0405242F0DA
S1139A8080525A60154AD2F8C43043F00043C2F8F9
S1139A90C430134BD3F8F42F42F01202C3F8F42F5E
S1139AA0D3F8F82F9107FBD5D3F8F82FD206FBD5BE
S1139AB000204FF0FF32C3F80402C3F80822C3F8B1
S1139AC02C02C3F83402C3F83822C3F84002FFF76B
S1139AD0CAFE012008BD00BF00C0024000C00F4004
S1139AE000C0005070B5134C25780024F5B14678B9
S1139AF0AE421DD10C608488042C14D0052C10D1E6
S1139B0092240D4DC68840881D60000AB4EB004FB6
S1139B10146006DB1D600123A642D4BF16601460E6
S1139B200B60012070BD2824044DEBE72846F9E7BB
S1139B302046F7E7DC37001048060010FCAC0000B4
S1139B40084B187061B1084B4A1E253112F8010FF9
S1139B5018B18A4203F8020BF8D100221A709A70E5
S1139B60704700BFDC3700108A060010014B5860B4
S1139B70704700BFDC370010F0B540F2EE31884288
S1139B80114C08D1114920789231087419601223BC
S1139B9001201360F0BD00256168060AC7B20C7885
S1139BA00CB92046F6E791F801C0BCEB102F08D1A0
S1139BB0AF4205D11960022E0CBF4B880B78E7E742
S1139BC001352144EBE700BFDC37001048060010E4
S1139BD02DE9F047524F0446BB680D4690464BB9F9
S1139BE0267806F01F06012E65D0022E77D03EB1EE
S1139BF0002003E098470028F2D00120BDE8F08758
S1139C006278D8F80030092AF2D801A151F822F07C
S1139C10399C0000F19B0000F19B0000F19B0000C7
S1139C20F19B0000439C00004B9C0000F19B000052
S1139C305B9C0000659C000000221A705A7002238D
S1139C400EE0A078FFF704FED7E743462A46A18832
S1139C506088BDE8F047FFF78FBF3A7B1A70012395
S1139C602B60CAE7A6782EB93046FFF785FE6388D5
S1139C703B73C2E74FF0FF08C1467D682B780BB9F0
S1139C800120F2E76B78042B08D0052B09D0022BB6
S1139C9001D195F805902B781D44EFE795F80380E2
S1139CA0F9E74E45F7D1B8F1000FF4D1A988A878A7
S1139CB0FFF784FDEFE76378D8F800200A2B06D07D
S1139CC00B2B08D0002B93D113705370B7E70023EC
S1139CD013702E6091E76388002BC1D088E7677802
S1139CE0012F0FD0032F15D0002F81D12079D8F860
