S01300006363323430305F746573742E7372656366
S1134000E03F00101D4100007141000071410000BB
S11340107141000071410000714100000000000086
S113402000000000000000000000000071410000DA
S11340307141000000000000714100007141000066
S113404071410000714100007141000071410000A4
S11340507141000071410000714100007141000094
S11340607141000071410000714100007141000084
S11340707141000071410000714100007141000074
S11340807141000071410000714100007141000064
S11340907141000071410000714100007141000054
S11340A07141000071410000714100007141000044
S11340B07141000071410000714100007141000034
S11340C071410000714100007141000038B5054C98
S11340D0054DAC4204D054F8043B9847AC42FAD1A5
S11340E038BD00BF000000000000000008B500F06B
S11340F07BF84FF48073084CA36300F0C7F81023D7
S1134100A36300F0E6F8042000F0DAF8B0F5774F86
S1134110F9D10223A363FEE700C0092008B50E4BC2
S11341200E4A0F498B420ED300210E4B0E4A934286
S11341300ED3FFF7CBFF4FF0E0230C4AC3F8082D52
S1134140FFF7D4FFFEE752F8040B43F8040BE9E74A
S113415043F8041BEBE700BF2000001000430000FD
S11341602000001020000010280000100040000073
S1134170FEE70000C30803EB900303EB901303EB8B
S1134180D013064A03EB902303EBD0235360536808
S1134190013B5360002BFAD1704700BF2000001090
S11341A000230F4A0F49136053609360D360136177
S11341B0D361536293620B600B620B640B66C1F8AC
S11341C08030136453649364D3641365D365536676
S11341D04B614B634B654B67C1F89430704700BF2C
S11341E000C0024000C0092008B5FFF7D9FF002233
S11341F04CF21271084B1A60196240F2B111196441
S11342004FF040511A66C3F880105A615A635A65D8
S11342105A67C3F8942008BD00C00920094B0A4915
S11342205A6822F470125A600A6822F0C0620A6066
S11342305A6C42F420125A645A6C22F4A0125A6442
S1134240704700BF00C0024000C0092070B5441E82
S1134250034620200C4A0125D0651026084605FA9D
S113426004F413B92023936570BD204214BF9565EF
S1134270D5659665516D013BC1F34001DBB241EA5E
S11342804000D665EDE700BF00C0092008B5FFF780
S1134290C5FF4FF40073084932208B63FFF76AFFB0
S11342A020238B654FF4804318208B630349BDE8BA
S11342B00840FFF7CBBF00BF00C00920FF7F0D00FF
S11342C008B540F0800109041820FFF7BFFF80B251
S11342D008BD08B500211820FFF7B8FF0020FFF73C
S11342E0EFFF0028FAD14FF400411820FFF7AEFF8A
S11342F00020FFF7E5FFB0F5004FF9D108BD00003D
S903411D9E
